:020000040802F0
:100000001084012051C90208E5C40208E7C40208AF
:1000100045C5020847C5020849C50208000000009E
:10002000000000000000000000000000E56202087F
:100030004BC50208000000008D6202080978020822
:1000400039CA02083DCA020841CA0208D77002082C
:1000500045CA020849CA02084DCA020851CA020824
:1000600055CA020859CA02085DCA020861CA0208D4
:1000700075AE020865CA0208ABAE020869CA02087A
:100080006DCA020871CA020875CA020879CA020854
:100090000F7C02087DCA020881CA020885CA0208CC
:1000A00089CA02088DCA020891CA020895CA0208C4
:1000B00099CA0208175402089DCA0208A1CA020878
:1000C000A5CA0208A9CA0208ADCA0208B1CA020834
:1000D000B5CA0208B9CA0208BDCA020835AE02088C
:1000E000C1CA0208C5CA0208C9CA0208CDCA0208A4
:1000F000D1CA0208D5CA0208D9CA0208DDCA020854
:10010000E1CA0208E5CA0208E9CA0208EDCA020803
:10011000F1CA0208F5CA0208F9CA0208FDCA0208B3
:1001200001CB020805CB020809CB02080DCB02085F
:1001300011CB020815CB020819CB02081DCB02080F
:10014000737D020821CB020825CB020829CB0208C7
:100150002DCB020831CB020835CB020839CB02087F
:100160003DCB020841CB020845CB020849CB02082F
:100170004DCB020851CB020855CB0208000000000D
:1001800059CB02085DCB0208FEB5002000218DF896
:10019000001001A900220023C1E900230027002448
:1001A000DFF8C029002111700021080080B2B0F5ED
:1001B000886F06D200200B009BB213445870491C74
:1001C000F3E70020A2F84104012082F84304002054
:1001D000010089B2642908D20021DFF88C290300CC
:1001E0009BB21A449170401CF2E70021DFF8782995
:1001F0001180DFF8D01A00220A6000220A71DFF8AD
:10020000C81A00220A6000220A71DFF8C01A002210
:100210000A6000220A71DFF8B81A00220A60002280
:100220000A710021DFF8AC2A11700021DFF8A82A3A
:1002300011700021DFF8A42A11700221DFF8A02A32
:1002400011700021DFF89C2A11700121DFF8982A33
:1002500011700121DFF8942A11700121DFF8F02AD2
:1002600011700021DFF8EC2A11700021DFF8E82A74
:1002700011700021DFF8E42A1160DFF8E41ADFF8DA
:10028000E42A11600021DFF8E02A11600021DFF884
:10029000DC2A11600021DFF8D82A11600021DFF884
:1002A000D42A11600021DFF8D02A11600021DFF884
:1002B000CC2A11700021DFF8C82A11705FF0FF31DD
:1002C000DFF8C02A11600025280080B204280DDA6A
:1002D0000020DFF8B41A2A0092B288540020DFF818
:1002E000AC1A2A0092B288546D1CEDE701226946CF
:1002F0000A2002F07FF99DF80000002803D09DF845
:100300000000012801D101200CE09DF80000032825
:1003100003D09DF80000022801D1002002E0DFF8A0
:10032000700A0078DFF8681A08709DF8000000284D
:1003300003D09DF80000022801D101200AE09DF8B9
:100340000000032803D09DF80000012801D10020FF
:1003500000E00878DFF83C1A087000263000C0B2D0
:10036000072858D2DFF8307A3100C9B2072041435C
:10037000785A4FF2A01188424BD13100C9B2072000
:10038000414307EB0100827892B201A93300DBB24E
:100390000720434307EB0300007902F02BF900200C
:1003A000050029003200D2B20720424307EB0200C9
:1003B000807889B280B2814213D201A8290089B223
:1003C000405CDFF8A81B2A0092B2895C884201D108
:1003D000012400E000242000C0B2002801D06D1CE0
:1003E000DFE72000C0B2002813D13100C9B20720D6
:1003F000414307EB0100827892B2DFF8701B3300B3
:10040000DBB20720434307EB0300007902F0CEF88C
:10041000FFE7761CA2E7F7BD2DE9F843ADF5896D3E
:1004200004000E0017009846DDF86854002C2CD00C
:10043000002021788DF80010711EADF841148DF860
:1004400043748DF844848DF845545FF000094846A4
:1004500080B2310089B2491E88420BDA484680B228
:100460002044407869464A4692B21144487019F1D6
:100470000109ECE7684602F0B7F90FF6211241F2E4
:100480005041DFF8480802F047FA0DF5806D13B0CF
:10049000BDE8F08330B4B0F5ED6F20D10C00E4B2CC
:1004A000502C0CD11400E4B2022C08D11C00E4B290
:1004B000002C04D10024DFF834582C700FE00C001D
:1004C000E4B2512C0BD11400E4B2012C07D11C0072
:1004D000E4B2002C03D10024DFF874582C7030BC37
:1004E00070472DE9F84300240025002600F0F9FAB2
:1004F00002F0FCF9002800F0BD80DFF8E0773878E2
:10050000002840F0B780DFF8BC970FF21552322177
:10051000484602F001FA01203870DFF8488640466C
:1005200002F0BFF998F84404050098F84504060065
:1005300018F1010398F84324B8F8411498F8000022
:1005400000F0C8F8484602F0F9F9DFF87C0702F03D
:10055000F5F998F8430400280FD1DFF888070178EF
:10056000112900F083800178122900F07F80017842
:1005700031297BD000787E2878D0DFF85C070078BE
:10058000012804D1DFF85C07007800286ED0DFF87E
:100590005417087800282ED1DFF8CC95B9F8000060
:1005A000002828D02800C0B201280FD12000C0B2F6
:1005B00003280BDAB9F8002019F102014FF4ED60BD
:1005C00002F0ABFD002801D1641CEFE72800C0B2A7
:1005D000022809D119F10203B9F800204FF4ED61A6
:1005E0003000C0B202F0CEFD002038700020DFF8ED
:1005F000E41608703AE00878002837D0DFF86895EC
:100600007F2089F8020098F8000089F80300087834
:1006100089F804000320A9F800002800C0B20128CE
:1006200010D1002004002000C0B203280ADA0322FF
:1006300019F102014FF4ED6002F06FFD002801D1C5
:10064000641CF0E72800C0B2022809D119F10203A6
:10065000B9F800204FF4ED613000C0B202F092FD15
:10066000002038700020DFF86C1608700020DFF8DA
:10067000F8140880DFF874763878002811D1DFF894
:10068000F08898F80000401C88F8000098F80000F6
:10069000142806D100F087FB01203870002088F86C
:1006A0000000DFF8AC763878002811D1DFF8C08878
:1006B00098F80000401C88F8000098F80000142802
:1006C00006D100F03DFC01203870002088F80000C1
:1006D000BDE8F1832DE9F84305000E0017001C006A
:1006E0005FF000095FF00008002C00F09781002007
:1006F00081464846C0B20B281AD20E20DFF8741883
:100700004A46D2B242430A4452782B00DBB29A42A4
:100710000BD14A46D2B200FB02F0085C002802D09E
:100720000120804604E00020804619F10109E0E73D
:100730004046C0B2012840F067813800C0B20128AD
:1007400040F0B1800020DFF890150870DFF89805C0
:100750000078012805D0C0F0618103286DD036D320
:100760005CE10E21DFF80C284846C0B24843104433
:100770008078002804D17F20DFF86815087025E014
:10078000DFF85C0500784B46DBB24B4313449B78A3
:10079000984206D04846C0B24843104480780228A8
:1007A00010D14846C0B201FB00F102EB0100D0F8C5
:1007B0000AC04B46DBB222003900C9B2300080B219
:1007C000E04703E03320DFF81C15087026E10E2116
:1007D000DFF8A0274846C0B248431044C07800283C
:1007E00004D17F20DFF8FC14087025E0DFF8F00466
:1007F00000784B46DBB24B431344DB78984206D07B
:100800004846C0B248431044C078022810D1484638
:10081000C0B201FB00F102EB0100D0F80AC04B4668
:10082000DBB222003900C9B2300080B2E04703E0F9
:100830003320DFF8B0140870F0E00E21DFF8342721
:100840004846C0B2484310440079002804D17F20B4
:10085000DFF89014087025E0DFF8840400784B4638
:10086000DBB24B4313441B79984206D04846C0B2D2
:10087000484310440079022810D14846C0B201FB19
:1008800000F102EB0100D0F80AC04B46DBB22200B7
:100890003900C9B2300080B2E04703E03320DFF80E
:1008A00044140870BAE03800C0B2002840F0B680A6
:1008B000DFF834040078012805D0C0F0AF800328A9
:1008C0006DD036D3AAE00E21DFF8A8264846C0B284
:1008D000484310444079002804D17F20DFF80414F5
:1008E000087025E0DFF8F80300784B46DBB24B4395
:1008F00013445B79984206D04846C0B2484310443E
:100900004079022810D14846C0B201FB00F102EB49
:100910000100D0F80AC04B46DBB222003900C9B250
:10092000300080B2E04703E03320DFF8B8130870EE
:1009300074E00E21DFF83C264846C0B2484310441C
:100940008079002804D17F20DFF89813087025E013
:10095000DFF88C0300784B46DBB24B4313449B79A2
:10096000984206D04846C0B24843104480790228D5
:1009700010D14846C0B201FB00F102EB0100D0F8F3
:100980000AC04B46DBB222003900C9B2300080B247
:10099000E04703E03320DFF84C1308703EE00E21FF
:1009A000DFF8D0254846C0B248431044C07900283B
:1009B00004D17F20DFF82C13087024E0DFF8200337
:1009C00000784B46DBB24B431344DB79984206D0A8
:1009D0004846C0B248431044C079022810D1484666
:1009E000C0B201FB00F102EB0100D0F80AC04B4697
:1009F000DBB222003900C9B2300080B2E04702E029
:100A00003320B849087009E03800C0B2012805D188
:100A10001120B44908700020AF490870BDE8F18387
:100A200038B50024684600210160AA4D2878401C92
:100A3000287028781F280BD3A24801F07FFFA24816
:100A400001F07CFF0020A5490870002028701EE0FE
:100A50007F208DF80000434800788DF80100782051
:100A60008DF802002000C0B2032809DA032269468B
:100A70004FF4ED6002F051FB002801D1641CF1E756
:100A8000DFF8E82940F2DC518F4801F045FF31BD25
:100A900080B5DFF8DC090078012802D101F0B6FA50
:100AA0001EE0DFF8D0090078012802D101F08BFAAE
:100AB00016E0DFF8C4090078012802D101F0C3FB79
:100AC0000EE0DFF8B8090078012802D101F088FAB9
:100AD00006E0DFF84C0B0078012801D101F0D7FACD
:100AE000FEE710B50024DFF888090178022904D157
:100AF00001210C000021017026E0DFF8780901785F
:100B0000022904D101210C00002101701CE0DFF852
:100B100068090178022904D101210C00002101702B
:100B200012E0DFF858090178022904D101210C00F4
:100B30000021017008E0DFF8E80A0178022903D1FA
:100B400001210C00002101702000C0B2002808D053
:100B500003F0D0FDDFF82C0C006803F063FF03F016
:100B6000E3FD10BDE8700120307B01202DE9F84342
:100B700005000E0014001F005FF000085FF0000980
:100B8000584900200870002C00F09A80280080B29C
:100B900001285AD10E20DFF8DC233B00DBB24343AF
:100BA00013441B7A012B08D1237813F07F03984656
:100BB000237813F08003994603E0237898460023B6
:100BC00099464346DBB2012B04D03BD3032B24D000
:100BD0000ED337E03B00DBB200FB03F01044407A59
:100BE000C00702D41220087001E0087808702EE0D7
:100BF0003B00DBB200FB03F01044407A800702D4D4
:100C00001220087008E038480078012802D17E20C0
:100C1000087001E00878087019E03B00DBB200FBC7
:100C200003F01044407A400702D41220087008E014
:100C30002D480078022802D17E20087001E0087853
:100C4000087004E01220087001E013200870484684
:100C5000C0B2002804D00878002801D1012005E0A6
:100C60000878002801D1002000E001201A4A107005
:100C70004846C0B200281CD10878002819D1DFF8F6
:100C8000082BBC4BBC465FFA8CFC0E2000FB0CFC16
:100C900003EB0C0040784030907082F80380002015
:100CA00010713220507101209071F420D071062013
:100CB00010800878002803D14046C0B200F018F830
:100CC000BDE8F183F87C0120047D0120107D012026
:100CD0001C7D0120F67D0120F77D0120F87D01209B
:100CE00092010020F97D0120930100209401002051
:100CF00038B50400DFF8945A2C700220DFF8901AFF
:100D000008702878012807D00FF2910241F2504173
:100D1000DFF8800A01F000FE287802280DD1DFF804
:100D2000780A0078002804D00020DFF8701A0870D4
:100D300003E00120DFF8641A0870064801780229F0
:100D400002D00021017001E00178017031BD000086
:100D500095010020FA7D0120FB7D0120547D0120BA
:100D60004129336590000020587D01205C7D0120E1
:100D7000607D0120647D0120687D0120FC7D0120D3
:100D8000FD7D0120940000204C7D0120507D01203C
:100D90009001002091010020D4C5020880B50120F7
:100DA000FFF7A6FF01BD80B502208DF800000122EB
:100DB0006946002001F0FAFB04F0D6FA01BD2DE9E6
:100DC000F84305000E0014001F005FF000085FF0FC
:100DD0000009DFF8FC1A00200870002C00F0AE803B
:100DE000280080B201286AD10E20624A3B00DBB2A3
:100DF000434313441B7A012B08D1237813F07F035C
:100E00009846237813F08003994603E023789846A8
:100E1000002399464346DBB2012B07D04CD3032B6A
:100E200020D011D3052B39D02AD345E03B00DBB2CB
:100E300000FB03F01044407AC00702D4122008706F
:100E400001E0087808703CE03B00DBB200FB03F0F7
:100E50001044407A800702D41220087001E008781C
:100E600008702EE03B00DBB200FB03F01044407A38
:100E7000400702D41220087001E00878087020E0D2
:100E80003B00DBB200FB03F01044407A000702D4C1
:100E90001220087001E00878087012E03B00DBB215
:100EA00000FB03F01044407AC00602D41220087000
:100EB00001E00878087004E01220087001E01320B7
:100EC00008704846C0B2002804D00878002801D134
:100ED000012005E00878002801D1002000E0012071
:100EE000DFF8B42810704846C0B2002815D1087841
:100EF000002812D1DFF89038DFF878C0BE465FFADC
:100F00008EFE0E2000FB0EFE0CEB0E0040784030F3
:100F1000987083F8038002201880087800280DD18B
:100F2000DFF8A80B80F800801078002804D1012099
:100F3000DFF89C1B087001E000F002F8BDE8F183C7
:100F400080B5DFF8880B0078012807D00DD303287F
:100F500008D006D3052807D005D306E004F004FA2C
:100F600003E002E001E000E0FFE701BD980000209F
:100F7000037E012048C402082DE9FF4F81B0002004
:100F80008DF80100002400208DF802000025DFF814
:100F90004069002030700398002800F0CF81BDF830
:100FA0000400002800F0B0810E27DFF8288B9DF8A0
:100FB000100078434044007A01280CD1039800784F
:100FC00010F07F008DF800000398007810F080008A
:100FD0008DF8010006E0039800788DF800000020ED
:100FE0008DF80100002004002000C0B2032878DA48
:100FF0000620DFF8E41A2200D2B242438A5C012ABA
:101000006DD12200D2B242430A4492789DF800305A
:101010009A4208D02200D2B242430A44D2789DF8C4
:1010200000309A425BD101221500DFF86027127868
:10103000012A04D04FD3032A33D018D34BE09DF8B4
:101040000820012A08D12200D2B200FB02F0084495
:10105000057915F0010509E02200D2B200FB02F08B
:1010600008440079C0F3C00515F0010533E09DF890
:101070000820012A0AD12200D2B200FB02F0084463
:101080000079C0F3400515F0010509E02200D2B255
:1010900000FB02F008440079C0F3001515F00105CB
:1010A00019E09DF80820012A0AD12200D2B200FBE3
:1010B00002F008440079C0F3800515F0010509E04D
:1010C0002200D2B200FB02F008440079C0F34015C0
:1010D00015F00105FFE72800C0B2012801D0641C0B
:1010E00082E72800C0B2002800F0FD80DFF8E89910
:1010F0009DF800102200D2B20620424309EB020004
:101100008078814262D1BDF8040001285BD1DFF80C
:10111000CCA99AF80000022802D137203070F5E0FF
:101120009AF80000032824D1DFF864060178220031
:10113000D2B20620424309EB02004078814218D126
:10114000DFF844069DF8101007FB01F708EB0701D4
:101150004978403181709DF80010C1700021017103
:1011600000214171002181710021C171062101809E
:10117000CCE0DFF86C99484600F0E3F8DFF80806A9
:101180009DF8101007FB01F708EB07014978403183
:1011900081709DF80010C17099F80010017199F8E4
:1011A0000110417199F80210817199F80310C17111
:1011B0000621018001208AF80000DFF8281948463E
:1011C00000F000F9A2E0132030709FE05FF0060A03
:1011D0009DF800002100C9B20AFB01F14944C97819
:1011E000884240F09380BDF80400052878D1DFF8EC
:1011F000ECB89BF80000012868D10122DFF8E8185C
:10120000092001F0F7F9DFF8DC0803994978027842
:10121000914230D103998978427891422BD1039938
:10122000C9788278914226D103990979C0788142A0
:1012300021D103208BF800002000C0B20AFB00FA85
:1012400009EB0A004078DFF8481508700020DFF845
:1012500098180870DFF830059DF8101007FB01F7AB
:1012600008EB07014978403181709DF80010C1708A
:101270000221018023E0DFF870080078401CDFF8CD
:1012800068180870DFF860080078032812DB362041
:10129000307002208BF800000FF2C5122000C0B29F
:1012A0000AFB00FA09EB0A004179DFF8400801F077
:1012B00033FB04E03520307000208BF80000012261
:1012C000DFF82418092001F071F91FE09BF80000F5
:1012D000022802D13720307018E02420307015E049
:1012E0001320307012E09DF80200002802D1122075
:1012F00030700BE02800C0B2002802D17E20307090
:1013000004E03078307001E0132030709DF8010067
:10131000002807D03078002804D10120DFF87814A5
:1013200008700BE03078002804D10020DFF8681442
:10133000087003E00120DFF86014087005B0BDE814
:10134000F08F1CB50400002C27D004F061F8DFF802
:101350008C1C086000F022F8207000F01FF860700C
:1013600000F01CF8A07000F019F8E07040F2F343B0
:10137000DFF87C27DFF87C070168DFF87C0704F0E2
:1013800073F8E0780090A37862782178DFF86C0732
:1013900004F06AF8A1A004F067F813BD43F2390025
:1013A000DFF8381C0A6800FB0200086008684FF686
:1013B000FF71B0FBF1F0FF21B0FBF1F201FB120075
:1013C000C0B27047F8B504000D0000260027002CBD
:1013D00044D0002D42D021785FF080704143627884
:1013E0005FF4803000FB0211A2784FF4807000FBA4
:1013F0000211E07808180700002006003000C0B293
:1014000023280ADA002F05D57F00DFF8F4060068EC
:10141000474000E07F00761CF0E73800000E28709F
:101420003800000C68703800000AA870EF7040F2B5
:101430003153DFF8D026DFF8BC060168DFF8B806C4
:1014400004F012F8E8780090AB786A782978DFF831
:10145000B80604F009F871A004F006F8F1BD000028
:101460000020DFF87816087070470000210A020893
:10147000007E0120FE7D0120027E0120FF7D0120F3
:101480002DE9F04705000E0014001F005FF0000A70
:10149000DFF83C1400200870002C00F0BC8028000D
:1014A00080B2022840F08B800E20DFF828263B0017
:1014B000DBB2434313441B7A012B08D1237813F08A
:1014C0007F039846237813F080039A4603E023783D
:1014D000984600239A46637899464346DBB2002B30
:1014E00005D0022B1FD010D3032B2AD037E03B00AE
:1014F000DBB200FB03F01044407AC00702D4122094
:10150000087001E0087808702BE03B00DBB200FBBC
:1015100003F01044407A800702D41220087001E0E2
:10152000087808701DE03B00DBB200FB03F01044BC
:10153000407A400702D41220087001E00878087051
:101540000FE03B00DBB200FB03F01044407A0007E1
:1015500002D41220087001E00878087001E012201F
:1015600008704846C0B2012804D025D3032817D0FC
:101570000BD321E0DFF8900A0078C00702D43120B5
:10158000087001E0087808701BE0DFF87C0A00783A
:10159000800702D43120087001E00878087010E05C
:1015A000DFF8640A007810F0030F02D131200870D0
:1015B00001E00878087004E03120087001E0132091
:1015C00008705046C0B2002804D00878002801D125
:1015D000012005E00878002801D1002000E001206A
:1015E0006D4A10700878002815D16749DFF8E424A7
:1015F0003B00DBB20E20434302EB03004078403057
:10160000887081F80380022008804946C9B24046AC
:10161000C0B200F007F8BDE8F08700000D0A000036
:10162000017E012011B581B00C009DF80400002856
:1016300003D09DF80400012805D12000C0B2012884
:1016400001D1012010E09DF80400032803D09DF88B
:101650000400022805D12000C0B2012801D10020D9
:1016600002E0DFF8900A0078DFF8881A08709DF829
:101670000400002803D09DF80400022805D12000B2
:10168000C0B2012801D101200EE09DF8040003281A
:1016900003D09DF80400012805D12000C0B2012824
:1016A00001D1002000E00878DFF8AC1B08700122AF
:1016B00001A90A2000F07AFF13BD2DE9F8430500C7
:1016C0000E0014001F005FF000098149002008701F
:1016D000002C55D0280080B2012824D10E20DFF83C
:1016E000F4233B00DBB2434313441B7A012B08D1A4
:1016F000237813F07F039846237813F080039946EC
:1017000003E023789846002399463B00DBB200FBB8
:1017100003F01044407AC00702D41220087004E09D
:101720000878087001E0132008704846C0B200280D
:1017300004D00878002801D1012005E008780028AD
:1017400001D1002000E00120134A10700878002821
:1017500016D10D49DFF87C233B00DBB20E2043435A
:1017600002EB030040784030887081F8038002204B
:101770000880DFF8E82A41F25041064801F0CCF831
:10178000BDE8F1836C7D0120307B012093010020B6
:1017900092010020107D0120F77D0120940100209E
:1017A0002DE9FB4F140000252078000261784618CF
:1017B00000275FF00008DFF81891002089F800008A
:1017C000002C00F08280BDF80000022866D10020C5
:1017D0000500280080B207280FD2DFF8841A2A00FB
:1017E00092B207204243885A310089B2884202D11E
:1017F0000120804601E06D1CEBE74046C0B20128A5
:1018000048D1DFF85CAA290089B2072041430AEBDE
:101810000100C078012808D0290089B2072041437F
:101820000AEB0100C078032830D1DFF838BAA949A3
:101830009DF808200E20424301EB02004078403022
:101840008BF8020020788BF8030060788BF8040096
:10185000290089B2072041430AEB0100827892B245
:101860001BF105012B009BB2072043430AEB030049
:10187000007900F0BFFE290089B2072041430AEB3E
:1018800001008078C01CABF800000AE0312089F824
:10189000000006E0312089F8000002E0132089F8FA
:1018A00000003800C0B2002805D099F800000028D8
:1018B00001D1012006E099F80000002801D10020A4
:1018C00000E00120DFF8A01B0870BDE8F78F0000E2
:1018D000F97D01202DE9FB4F050014005FF0000A9F
:1018E000207800026178461800208DF8010000275A
:1018F00001208DF800005FF00008DFF8E49A002076
:1019000089F80000002C00F0DF80280080B2022857
:10191000C0F2C38000208246504680B2072810D211
:10192000DFF83C19524692B207204243885A3100F0
:1019300089B2884202D10120070002E01AF1010AAF
:10194000EAE73800C0B2012840F0A380DFF810B900
:10195000514689B2072041430BEB01004079DFF883
:10196000841A0978884209D0514689B20720414338
:101970000BEB01004079022840F08780514689B284
:10198000072041430BEB0100C078022808D05146E4
:1019900089B2072041430BEB0100C078032870D1C6
:1019A000514689B2072041430BEB01008078801C2F
:1019B000290089B2884260D10122694653469BB210
:1019C000072043430BEB0300807900F013FE9DF8E2
:1019D000000050FA0AF0C0074BD5514689B20720E3
:1019E00041430BEB0100827892B2A11C53469BB29B
:1019F000072043430BEB0300007900F0D7FD40467E
:101A0000C0B2002812D1DFF85C18324A9DF80830C5
:101A10000E20434302EB030040784030887020786A
:101A2000C870607808710320088002E0102089F8EF
:101A30000000300080B24FF28C11884205D0300097
:101A40004FF2901180B288422AD19DF80000012106
:101A500011FA0AF188438DF80000012269465346C5
:101A60009BB2072043430BEB0300807900F09EFDFF
:101A700016E0362089F8000012E0132089F80000F3
:101A80000EE0312089F800000AE0332089F80000D8
:101A900006E0312089F8000002E0132089F80000F8
:101AA0009DF80100002805D099F80000002801D118
:101AB000012006E099F80000002801D1002000E094
:101AC0000120DFF8A4190870BDE8F78F9601002007
:101AD0009501002048C40208D8C80208FA7D0120F8
:101AE0004C7D0120507D0120FB7D01201C7D0120CB
:101AF00000C90208CC7D012060C8020830C7020876
:101B00009000002010C902084CC702082DE9FB4FC5
:101B100084B01400002500208DF809000027002063
:101B20008DF8080001200390DFF8B46800203070C1
:101B3000002C00F04582BDF810000328C0F2268278
:101B400060780002A1784018ADF80A000E21DFF895
:101B5000E4299DF8180048431044007A012809D16F
:101B6000207810F07F000500207810F080008DF8BC
:101B7000090004E02078050000208DF8090000200D
:101B80000700380080B2042813D2DFF8AC39BC4615
:101B90001FFA8CFC0D2000FB0CFC33F80C00BDF888
:101BA0000A30984203D101208DF8080001E07F1C23
:101BB000E7E7DFF888090078012804D078D3032804
:101BC0004FD027D374E00D23DFF86CC9380080B202
:101BD00058436044C078002802D17F20307018E05C
:101BE000380080B258436044C078DFF8F8E79EF8C8
:101BF00000E070450BD0380080B203FB00F30CEB23
:101C00000300C078022802D03320307001E0307821
:101C100030704DE00D23DFF820C9380080B2584302
:101C200060440079002802D17F20307018E038002D
:101C300080B2584360440079DFF8A8E79EF800E0DE
:101C400070450BD0380080B203FB00F30CEB0300AF
:101C50000079022802D03320307001E030783070F3
:101C600026E00D23DFF8D0C8380080B25843604426
:101C70004079002802D17F20307018E0380080B20F
:101C8000584360444079DFF85CE79EF800E0704517
:101C90000BD0380080B203FB00F30CEB030040795B
:101CA000022802D03320307001E030783070FFE736
:101CB0002800C0B2012804D03CD3032827D013D376
:101CC00038E0DFF87438BC461FFA8CFC0D2000FBAE
:101CD0000CFC03EB0C008079C00702D4122030709A
:101CE00001E03078307027E0DFF84C38BC461FFA4E
:101CF0008CFC0D2000FB0CFC03EB0C0080798007B2
:101D000002D41220307001E03078307014E0DFF837
:101D10002838BC461FFA8CFC0D2000FB0CFC03EBA2
:101D20000C008079400702D41220307001E0307836
:101D3000307001E0122030709DF80800002802D1B8
:101D40003120307001E0307830703078002840F079
:101D50001F819DF80800012840F01A812800C0B2B8
:101D6000012807D0C0F01181032800F0E780C0F0FF
:101D7000E4800AE10D20DFF8C037BC461FFA8CFC76
:101D800000FB0CFC9C449CF802C01CF1030CBDF849
:101D900010E0F44516D1DFF8CCC49DF818E001FB43
:101DA0000EF11144497840318CF802108CF8035040
:101DB00061788CF80410A1788CF805100421ACF837
:101DC000001001E013213170390089B241431944F8
:101DD000FF22CA72390089B200FB01F018440021C9
:101DE0000173DFF85C87DFF85C97DFF85CA79AF88F
:101DF000001099F800000143DFF850070078014314
:101E000098F800000143C9B2002940F09380DFF840
:101E100040B79BF80000002840F08C8002F06AFC7C
:101E2000380080B2002805D0022834D006D3032819
:101E300042D045E0012089F8000041E0DFF81417A6
:101E4000E0782279120452EA0062607952EA0022B4
:101E5000A07902430A60DFF80027E079237A1B04A7
:101E600053EA0063607A53EA0023A07A03431360C5
:101E70000868DFF8E83698420AD309681068411804
:101E8000DFF8DC06814203D2012088F8000001E07F
:101E90003120307014E0E0782179090451EA0061C2
:101EA000607951EA0021A0790143DFF8B8060160AA
:101EB00001208AF8000003E001208BF80000FFE712
:101EC000DFF8A40601900220009000234FF4007276
:101ED000DFF89816DFF8980602F0AAFC0390039842
:101EE000012812D140F26B73DFF88826DFF88806EC
:101EF0000168DFF8880603F0B7FADFF8840603F01C
:101F0000B3FA7BA003F0B0FA11E040F26F73DFF890
:101F10006426DFF864060168DFF8600603F0A4FABF
:101F2000DFF8600603F0A0FA71A003F09DFA02F05A
:101F3000FBFB01E0212030702AE029E00D23DFF8CF
:101F4000F8C5380080B258436044007B002819D09F
:101F5000DFF810039DF818E001FB0EF111444978F9
:101F600040318170C57061780171A178417139008B
:101F700089B203FB01F30CEB0301C97A81710521DE
:101F8000018001E02120307002E001E01320307078
:101F90009DF80900002807D03078002804D10120DE
:101FA000DFF8C41408700BE03078002804D100205A
:101FB000DFF8B414087003E00120DFF8AC140870F7
:101FC00007B0BDE8F08FDFF870050021C172012174
:101FD00001730220DFF86C1508707047547D0120F2
:101FE00010B50220DFF858150870DFF84C45DFF80F
:101FF00068050168DFF85C05006803F064FA207684
:102000000120607610BD0000FE56020870B5E4B0F5
:10201000002468464FF4C87103F078FA00250026C2
:1020200003F09CFADFF8600501688C421ED201685B
:1020300014F5C872914203D20068001B050002E04B
:102040004FF4C87005002A0092B26946DFF83C05DB
:102050000068201803F02DFA2A0092B26946300079
:1020600003F07DFA060014FA85F4DBE7DFF8F404E8
:1020700000684640DFF8C00480F82560012180F840
:1020800026100220DFF8C014087064B070BD3EB5A1
:1020900000208DF80000002401A800210160042226
:1020A00001A90E2000F0A6FA042201A90D2000F0DB
:1020B0007DFA5FF48022DFF8D814DFF8D40403F04F
:1020C000E9F9050000208DF80000012269460B2087
:1020D00000F06CFA03F048F9DFF85C0480F8325045
:1020E000012180F833100220DFF85C14087037BD3E
:1020F0000D0A0000900100202DE9F84305000E00B4
:1021000014001F005FF00008684600210160DFF83E
:10211000D092002089F80000002C00F09280280066
:1021200080B2042877DB2078C0B20009C0B2002852
:1021300003D0207810F00F0F69D1607800F0FF0015
:10214000442864D1280080B20A285CD1DFF83C140E
:10215000A078E278120412EB0062207912EB0022E0
:10216000607910180860DFF82004A279E3791B0475
:1021700013EB0263227A13EB0223627A9A1802604D
:102180000022DFF810341A600A68DFF8D0339A4270
:1021900035D30A6800688218DFF8C40382422ED261
:1021A0000868000E8DF8000068460A68120C42703C
:1021B0000A68120A82700968C170042269460D20FB
:1021C00000F0F4F90020DFF8D01308700120DFF8E8
:1021D000CC1308702349DFF85C233B00DBB20E20F0
:1021E000434302EB03004078403088702020C870E1
:1021F0000420087140204871042008800EE07020FF
:1022000089F800000AE0132089F8000006E0312078
:1022100089F8000002E0132089F800004046C0B2AF
:10222000002805D099F80000002801D1012006E01F
:1022300099F80000002801D1002000E001208A491F
:102240000870BDE8F18380B55FF48022C349D048AF
:1022500003F020F901BD0000910100209D0D02084E
:10226000D4C50208307B01202DE9F34F81B0050071
:1022700014001E0000208DF8000000275FF0000809
:10228000DFF85C91002089F80000002C00F0A580A8
:10229000280080B20228C0F28A80280080B2801E06
:1022A00040F20141884280F28280BC4800780128D7
:1022B00079D1DFF8E4A220789AF80010491CC9B25D
:1022C000884256D120788AF80000DFF8C8B2AE48BC
:1022D0000068DBF8001011FA85F1891E88423FD3AF
:1022E000A91E89B2601C00F0C1F80700280080B266
:1022F000801E80463800290089B2214411F8011C53
:10230000C0B2884223D14246611CA0480068DBF875
:102310000030181803F0BEF8002818D1A049854AEB
:102320003300DBB20E20434302EB03004078403021
:1023300088709AF80000C87002200880DBF800005E
:10234000290089B2891E0818CBF8000032E09AF8FB
:102350000000401E8AF80000722089F8000029E081
:102360009AF80000401E8AF80000712089F80000E9
:1023700020E020789AF80010884210D188496D4AF0
:102380003300DBB20E20434302EB030040784030C1
:1023900088709AF80000C870022008800AE0732054
:1023A00089F8000006E0242089F8000002E01320EC
:1023B00089F800009DF80000002805D099F8000079
:1023C000002801D1012006E099F80000002801D181
:1023D000002000E0012024490870BDE8F78F0000CC
:1023E000F97D012092010020F0B500256D4E0024FA
:1023F0003470002A36D00400A4B2002C1FD1674CE0
:102400002778012F18D1002727700024614F3C60E6
:102410000024614F3C70624FDFF818C19E465FFA9E
:102420008EFE0E2404FB0EFE0CEB0E04647840348A
:10243000BC7001243C8004E02424347001E01324A7
:1024400034702C00E4B2002C04D03478002C01D17C
:10245000012405E03478002C01D1002400E001249F
:10246000014E3470F0BD0000F77D012030B4020051
:1024700000230025002A0ED0002420000B0080B28B
:102480009BB2984204D210784540521C641CF4E779
:102490002800C0B200E0FF2030BC7047FEB5040049
:1024A0000D000020694600220023C1E90023290015
:1024B00089B206293CD100263000C0B2072837D2A5
:1024C000394F3100C9B207204143785A4FF2A11168
:1024D00088422BD13100C9B20720414307EB0100EC
:1024E000827892B269463300DBB20720434307EBA0
:1024F0000300007900F07EF806222100684603F010
:1025000047F8002814D03100C9B20720414307EB37
:102510000100827892B221003300DBB207204343EE
:1025200007EB0300007900F041F801E0761CC3E7F7
:10253000F7BD000048C402085C00002093010020A1
:10254000FF7D0120FE7D0120007E0120027E012012
:10255000017E0120587D01205C7D012000000208E1
:1025600001000608940000206C7D0120E0C90208EB
:10257000910A020878C80208CC7D012014C702081D
:1025800068C7020884C70208647D0120607D0120BD
:1025900000000C08687D0120FC7D0120FD7D0120EC
:1025A000307B0120F97D0120D4C50208F8B5040074
:1025B0000D00160000270620344B2100C9B241430C
:1025C000595A320092B2914211D32100C9B20F2957
:1025D0000DDA320092B22900A4465FFA8CFC00FBAF
:1025E0000CF01844808803F078F8012000E0002007
:1025F000C0B2F2BDF8B504000D0016000027062099
:10260000224B2100C9B24143595A320092B2914241
:1026100011D32100C9B20F290DDA320092B229007C
:10262000A4465FFA8CFC00FB0CF01844808803F091
:1026300042F8012000E00020C0B2F2BD38B5684683
:1026400000210160002404226946002003F033F8D1
:102650000F4D04222900684602F09AFF002814D08A
:1026600004222900002003F038F8FC200400002593
:102670002800210080B289B2884206D2FF21281D9D
:1026800080B202F0EDFF6D1CF2E731BD00000020CA
:10269000D8C9020830B4002300209D4900220A80D6
:1026A00000224A80002213009BB2642B1FD20E230B
:1026B0001400A4B25C430C44002565601400A4B26D
:1026C0005C430C4400252574002420000400A4B2BF
:1026D000082C0ADA1400A4B25C430C440500ADB225
:1026E0002C4400252572401CF0E7521CDBE730BC6F
:1026F0007047F0B4020000230024854D6888401C18
:102700006426B0FBF6F706FB17002E88B04201D115
:10271000012033E0002A01D103202FE00020030034
:102720001800967A80B2B6B2B0420ED26E880E20F1
:10273000464305EB06001E00B6B230441E00B6B29A
:102740001644F67A06725B1CEAE70E206E88464352
:102750002E44176877606E8846432E44977A377404
:102760006E8800FB06F0284441746888401C64268B
:10277000B0FBF6F706FB170068800020C0B2F0BC83
:10278000704770B504000025614E3088718888421A
:1027900001D1022016E0002C01D1032012E020001C
:1027A00032880E214A4306EB0201091D0E2202F077
:1027B000A7FF3088401C6421B0FBF1F201FB12003E
:1027C00030800020C0B270BD5148418802889142DB
:1027D00003D341880088081A04E001884088081A59
:1027E000D0F1640080B2704770B401000022002371
:1027F000484C6088401C0325B0FBF5F605FB16002D
:102800002588A84201D1012048E0002901D10320F8
:1028100044E0002002001000B1F8415480B2A84208
:102820000FD2658840F24640454304EB0500150091
:10283000ADB228441500ADB20D446D784571521CFF
:10284000E9E740F246406588454325440E782E71FD
:10285000658845432544B1F84164A5F84564658819
:102860004543254491F8436485F8476465884543AA
:10287000254491F8446485F84864658800FB05F0B8
:10288000204491F8455480F849546088401C032541
:10289000B0FBF5F605FB160060800020C0B270BCEE
:1028A000704770B5040000251A4E30887188884240
:1028B00001D1022018E0002C01D1032014E02000F7
:1028C000328840F246414A4306EB0201091D40F2BC
:1028D000464202F015FF3088401C0321B0FBF1F2A4
:1028E00001FB120030800020C0B270BD0948418851
:1028F0000288914203D341880088081A04E00188C5
:102900004088081AD0F1030080B270470000000030
:1029100020670120043D012070B504000D00160061
:10292000002C0AD03000002807D002F071FD4119B8
:10293000216001212171C4F8056070BD002801D01B
:1029400000210171704710B50400002C1ED002F068
:102950005FFD01002079012816D12068002803D1ED
:1029600000202071012012E02068081A052803D3F6
:102970002068401A052805D2002020600020207120
:10298000012004E0002002E0002000E0002010BD53
:1029900010B5264C2000FFF7D6FF002808D02000F5
:1029A000FFF7CCFF601D0168002901D0016888474E
:1029B0001F4C2000FFF7C7FF002808D02000FFF7BA
:1029C000BDFF601D0168002901D001688847194CCE
:1029D0002000FFF7B8FF002808D02000FFF7AEFF67
:1029E000601D0168002901D001688847124C200051
:1029F000FFF7A9FF002808D02000FFF79FFF601D08
:102A00000168002901D0016888470C4C2000FFF7BD
:102A10009AFF002808D02000FFF790FF601D016892
:102A2000002901D00168884710BD0000107D0120F9
:102A30001C7D0120F87C0120047D0120287D0120DF
:102A40002DE9F041DFF82C47012020704FF4EC60B5
:102A5000C4F8020040F2DF70C4F806000120607084
:102A60004FF48A65002614F50A6732002900380001
:102A700002F09AFE40F696075FF000080A344246DC
:102A80003900200002F090FE0120DFF8EC160870FB
:102A9000BDE8F0812DE9F14F86B00C000027032539
:102AA00000200490002C00F0B181684621000D2226
:102AB00002F026FE206840F2DF71884203D02068D1
:102AC000B0F5EC6F07D1DFF8B42641F25041DFF8E2
:102AD000B006FFF721FFDFF89C667078012804D16B
:102AE0009DF818003178884200D08FE12068B0F559
:102AF000EC6F13D040F2DF7188421FD10020050037
:102B00004FF4ED60049001212A00D2B240F24B4014
:102B1000424306EB020080F8541411E00120050046
:102B20004FF4ED60049001212A00D2B240F24B40F4
:102B3000424306EB020080F8541401E00320050034
:102B40002800C0B2032800F061819DF80500082824
:102B500008DA9DF806007F2804D19DF8080078283F
:102B600000F054819DF80500082804DA9DF806005D
:102B70003E2800F04B819DF80500C0B200090028F6
:102B800007D0022800F0AC8038D3032800F027815A
:102B90003CE140F24B482800C0B208FB00F0304452
:102BA0000099C0F80A102800C0B208FB00F03044B9
:102BB000022181742800C0B208FB00F030449DF867
:102BC000051011F00F01C1815FF007090DF1060A30
:102BD0002800C0B208FB00F0304410F1140B4A4644
:102BE0005146584602F08CFD2800C0B208FB00F8A0
:102BF00006EB08000A3000F00CF907E140F24B4800
:102C00002800C0B208FB00F030440099C0F80A1058
:102C10002800C0B208FB00F0304401218174280074
:102C2000C0B208FB00F006EB00019DF8052012027F
:102C300012F470629DF806000243CA815FF0060933
:102C40000DF1070A2800C0B208FB00F0304410F173
:102C5000140B4A465146584602F052FD2800C0B2B5
:102C600008FB00F03044062101822800C0B208FBB6
:102C700000F030440021C1742800C0B208FB00F805
:102C800006EB080090F85404012840F0BF800020B3
:102C9000010089B2082907DA00216A4603009BB2C5
:102CA0001A445171401CF3E70499009130218DF8CA
:102CB000051000218DF8061005218DF80710082158
:102CC0008DF8041000276946307802F05DFE002878
:102CD00005D0380080B20A2801D27F1CF3E795E0C6
:102CE00040F24B402900C9B241433144897C01295B
:102CF00040F08C802900C9B2414331442A00D2B24D
:102D000042433244D27C521CCA749DF8051011F023
:102D10000F012A00D2B242433244D27C12F00F0299
:102D2000914207D02900C9B200FB01F030440321D1
:102D3000817453E001210F00390089B208293EDA7D
:102D40002900C9B241433144098AB1F5886F06D3DD
:102D50002900C9B24143314403228A742FE029007B
:102D6000C9B2414331442A00D2B242433244128AAA
:102D700011446A463B009BB21A4452790A752900F5
:102D8000C9B2414331442A00D2B242433244128A8A
:102D9000521C0A822900C9B241433144098A2A00DF
:102DA000D2B242433244D289914206D12900C9B2FB
:102DB0004143314402228A7401E07F1CBCE72900B0
:102DC000C9B241433144897C012907D02900C9B2E5
:102DD00000FB01F030440A3000F01BF816E0D6F892
:102DE000A1080099884201D1012000E000200220C2
:102DF00086F8A0089DF8060086F8EA0C9DF8070002
:102E000086F8EC0C012086F8E90CFFE707B0BDE876
:102E1000F08F38B5040000252068B0F5EC6F04D0C1
:102E2000206840F2DF71884216D1207A022813D13F
:102E3000A088002810D02068B0F5EC6F01D10125E2
:102E400000E000250020009001232A00D2B2A188D2
:102E500014F10A00FDF7E0FA31BD2DE9F84384B022
:102E600000200024200080B2082807DA00206946EC
:102E7000220092B211444871641CF3E7BD4D68789A
:102E8000012840F0478195F8A008002800F0428111
:102E900095F8A00803281CD1B5F8EE0C4FF4FA7190
:102EA00090FBF1F201FB1200002802D1012085F80D
:102EB000A008B5F8EE0C4FF4FA7190FBF1F004287D
:102EC00002DB042085F8A008B5F8EE0C401CA5F83C
:102ED000EE0C95F8A008012840F0AD800020A5F880
:102EE000E70C012085F8E90C05F6A1063068B0F57D
:102EF000ED6F0FD040F2DF71884217D140F6960790
:102F00005FF0000815F10A0942463900484602F010
:102F10004BFC0BE040F24B475FF0000805F25549CF
:102F200042463900484602F03FFCFFE7B5F8A508E5
:102F300008283ADB08208DF80400B5F8A50800122F
:102F400010F00F0010308DF80500B5F8A5088DF8C9
:102F50000600062705F6A7080DF107093A004146C5
:102F6000484602F0CDFB0620A5F8E70C306800903B
:102F70006946287802F008FD00280FD095F8ED0C7E
:102F8000401C85F8ED0C95F8ED0C062853DB042069
:102F900085F8A008002085F8ED0C4CE0002085F8AD
:102FA000ED0C032085F8A00845E008208DF804000A
:102FB00095F8A50810F00F008DF805009DF8057034
:102FC00005F6A7080DF106093A004146484602F009
:102FD00097FB9DF80500A5F8E70C3068009069465E
:102FE000287802F0D1FC002817D095F8ED0C401C91
:102FF00085F8ED0C95F8ED0C06281CDB042085F80F
:10300000A008002085F8ED0C3068012395F8A82869
:1030100095F8A718FDF73EFA0DE0002085F8ED0CB5
:103020003068002395F8A82895F8A718FDF732FA1C
:10303000042085F8A00895F8A00802285ED1B5F80C
:10304000E70CB5F8A518884246D208208DF8040090
:1030500095F8E90C10F00F0020308DF805000726D8
:10306000B5F8E70C284400F6A7080DF10607320072
:103070004146380002F044FB05F6A107386800908D
:103080006946287802F080FC002817D095F8ED0CEE
:10309000401C85F8ED0C95F8ED0C06280DDB04209E
:1030A00085F8A008002085F8ED0C3868012395F814
:1030B000A82895F8A718FDF7EDF90DE0B5F8E70C8D
:1030C000C01DA5F8E70C95F8E90C401C85F8E90C43
:1030D000002085F8ED0CB2E7B5F8E70CB5F8A518B7
:1030E00088420BD3D5F8A108002395F8A82895F8B5
:1030F000A718FDF7CFF9042085F8A008D5F8A10896
:10310000B0F5ED6F06D195F8A008042802D1002093
:1031100085F8A00805B0BDE8F0832DE9F04705006B
:103120000C001700002C21D0124E96F8A0080028A1
:103130001CD1380080B240F24141884216D2C6F814
:10314000A158A6F8A578B8461FFA88F8A14606F651
:10315000A70A42464946504602F0D2FA012086F8B4
:10316000A0080120A6F8EE0C012000E00020BDE838
:10317000F087000014300120970100209D0D020807
:10318000107D01202DE9F14F82B00D0016001C00CA
:10319000012001900027002C02D15FF001085DE1C1
:1031A000300080B240F20111884202DB5FF001087A
:1031B00054E14FF4C868DFF8A49B3800C0B208FBA4
:1031C00000F0484490F83E06062802DB5FF0020853
:1031D00044E14FF485703900C9B208FB01F149445C
:1031E0003A00D2B208FB02F24A4492F83C2642432B
:1031F000114401224A703900C9B208FB01F1494467
:103200003A00D2B208FB02F24A4492F83C2642430A
:10321000114400220A713900C9B208FB01F1494486
:103220003A00D2B208FB02F24A4492F83C264243EA
:10323000114402224A713900C9B208FB01F1494424
:103240003A00D2B208FB02F24A4492F83C264243CA
:1032500011449DF808208A71310089B208296EDB7B
:103260003900C9B208FB01F149443A00D2B208FB67
:1032700002F24A4492F83C2642431144321D0A812C
:103280003900C9B208FB01F149443A00D2B208FB47
:1032900002F24A4492F83C26424311442A00120AA0
:1032A0008A723900C9B208FB01F149443A00D2B22E
:1032B00008FB02F24A4492F83C2642431144CD7284
:1032C0003900C9B208FB01F149443A00D2B208FB07
:1032D00002F24A4492F83C2642431144320092B230
:1032E000121212F00F0210320A733900C9B208FB31
:1032F00001F149443A00D2B208FB02F24A4492F882
:103300003C26424311444E73B2461FFA8AFA009497
:103310003900C9B208FB01F149443A00D2B208FBB6
:1033200002F24A4492F83C2600FB02F0084410F1F5
:103330000E0B52460099584602F0E2F95AE0390065
:10334000C9B208FB01F149443A00D2B208FB02F2CB
:103350004A4492F83C2642431144F21C0A81390047
:10336000C9B208FB01F149443A00D2B208FB02F2AB
:103370004A4492F83C26424311442A00120A8A72B7
:103380003900C9B208FB01F149443A00D2B208FB46
:1033900002F24A4492F83C2642431144CD7239006D
:1033A000C9B208FB01F149443A00D2B208FB02F26B
:1033B0004A4492F83C264243114416F00F020A7325
:1033C000B2461FFA8AFA00943900C9B208FB01F12B
:1033D00049443A00D2B208FB02F24A4492F83C2631
:1033E00000FB02F0084410F10D0B524600995846BC
:1033F00002F086F93800C0B208FB00F048443900FA
:10340000C9B208FB01F1494491F83C16491C80F807
:103410003C163800C0B208FB00F048443900C9B27D
:1034200008FB01F1494491F83E16491C80F83E160C
:103430003800C0B208FB00F0484490F83C06062172
:103440003A00D2B208FB02F809EB080290FBF1F354
:1034500001FB130082F83C065FF000081E2000907C
:103460005FF00009DFF80CACD3464A460099584695
:1034700002F09AF95FF0000BBBF10A0F10DA30008E
:1034800080B283450CDA14F80B20DFF8EC1B032024
:1034900000FB0BF0504402F0CFFA1BF1010BEBE7FD
:1034A0004046BDE8FE8F2DE9F74F82B01D000E9C0F
:1034B00001260027002C02D15FF00109BAE02800A4
:1034C00080B240F20111884202DB5FF00109B1E0F5
:1034D0004FF4C869DFF884A83800C0B209FB00F0D7
:1034E000504490F83E06062802DB5FF00209A1E096
:1034F0004FF485703900C9B209FB01F151443A001B
:10350000D2B209FB02F2524492F83C2642431144E3
:1035100001224A703900C9B209FB01F151443A0055
:10352000D2B209FB02F2524492F83C2642431144C3
:103530000D813900C9B209FB01F151443A00D2B200
:1035400009FB02F2524492F83C26424311449DF892
:1035500008200A713900C9B209FB01F151443A004F
:10356000D2B209FB02F2524492F83C264243114483
:103570009DF80C204A713900C9B209FB01F1514490
:103580003A00D2B209FB02F2524492F83C2642437E
:1035900011449DF810208A71A8461FFA88F80094FB
:1035A0003900C9B209FB01F151443A00D2B209FB1A
:1035B00002F2524492F83C2600FB02F0084410F15B
:1035C0000A0B42460099584602F09AF83800C0B2F9
:1035D00009FB00F050443900C9B209FB01F1514424
:1035E00091F83C16491C80F83C163800C0B209FB23
:1035F00000F050443900C9B209FB01F1514491F87F
:103600003E16491C80F83E163800C0B209FB00F097
:10361000504490F83C0606213A00D2B209FB02F968
:103620000AEB090290FBF1F301FB130082F83C0660
:103630005FF000091E265FF00008DFF838AAD346C5
:1036400042463100584602F0AFF85FF0000BBBF184
:103650000A0F10DA280080B283450CDA14F80B2028
:10366000DFF8141A032000FB0BF0504402F0E4F9D9
:103670001BF1010BEBE7D723DFF81C2DDFF81C0D46
:103680000168DFF81C0D01F0EFFE5246290089B2F7
:10369000DFF8100D01F0E8FEAFA001F0E5FE4846AE
:1036A00005B0BDE8F08F2DE9FF4F83B00024002561
:1036B0009DF80C0002280CDB9DF80C000B2808DAA2
:1036C0000598002805D00698002802D00498002804
:1036D00002D1022004009EE09DF80C00801E022111
:1036E00090FBF1F0050041F69A1641F69C17DFF8C1
:1036F000B88C2800C0B278434044805D002802D1D5
:103700000120040087E040F2444941F6991A0598E7
:1037100000682900C9B2794341442A00D2B27A43F1
:10372000424412F80A2009FB02F2114449888842F7
:1037300002D2032004006EE02800C0B27843404467
:103740002900C9B27943414411F80A1009FB01F17B
:10375000405C049908702800C0B2784340442900B6
:10376000C9B27943414411F80A1009FB01F1084438
:10377000408801902800C0B2784340442900C9B273
:103780007943414411F80A1009FB01F10844001D76
:103790000090DDF818B0019A0099584601F0B0FF8A
:1037A0002800C0B2784340442900C9B2794341445B
:1037B00011F80A1009FB01F948444088059908608E
:1037C0002800C0B2784340442900C9B2794341443B
:1037D000895D491E81552800C0B2784340442900C4
:1037E000C9B27943414411F80A10491C00F80A1083
:1037F0002800C0B27843404410F80A0006212A008D
:10380000D2B207FB02F708EB070290FBF1F301FBD2
:10381000130002F80A002000C0B207B0BDE8F08F24
:103820002DE9F04F87B00500002600245FF0000965
:10383000002000904FF4086ACDF818A000200590F1
:10384000DFF8687BB846059A0699404601F0ACFF60
:10385000CDF810A000200390DFF89C8CC346039A9B
:103860000499584601F0A0FF00203855641C2878C0
:103870003855641C68793855641CA8793855641C1F
:1038800028894FF4807190FBF1F03855641C288929
:103890003855641C2889029015F10A00019007EB45
:1038A000040B029A0199584601F02AFF288924182E
:1038B000A14507D2395D17F809004118395519F1AA
:1038C0000109F5E7CDF800A06B464246210038001B
:1038D00002F0D2F80099404602F028FA300007B012
:1038E000BDE8F08F2DE9F14F9AB00025002401A822
:1038F000642101F00BFE002000904FF408660027C1
:10390000DFF8A88AC1463A003100484601F04CFF72
:103910005FF064095FF0000A0DF1040B524649465E
:10392000584601F041FF012008F80400641C9DF88E
:10393000680008F80400641C642000906B4601AA2B
:103940002100404602F098F8009901A802F0EEF933
:1039500028001BB0BDE8F08F0D0A00002DE9F84FDC
:1039600000250020002600275FF000080024002C1E
:1039700040F0C6804FF4C869DFF8E0A309FB04F00B
:10398000504490F83E06002800F0B4800020060065
:1039900009FB04F0504490F83E06864280F0AA806D
:1039A00009FB04F0504490F83D0656FA80F00621D9
:1039B000B0FBF1F201FB120007004FF4857B09FB1D
:1039C00004F050440BFB07F108444078012827D14C
:1039D000DFF8280B0178491C017009FB04F1514400
:1039E0000BFB07F20078885409FB04F050440BFBF2
:1039F00007F108440021817009FB04F050440BFBDF
:103A000007F108440221417009FB04F90AEB09009F
:103A10000BFB07FB5844FFF703FF0120804669E0DA
:103A200009FB04F050440BFB07F1084440780228DE
:103A30005EDB09FB04F050440BFB07F108444078BF
:103A4000052855DA09FB04F050440BFB07F1084444
:103A5000807864284CDB09FB04F050440BFB07F131
:103A6000084409FB04F151440BFB07F21144497867
:103A7000491C417009FB04F050440BFB07F108445A
:103A80000021817009FB04F050440BFB07F108444E
:103A9000407805282CDA09FB04F050440BFB07F1B1
:103AA0000844FFF7BDFE40F27513DFF8582ADFF82F
:103AB000EC080168DFF8E80801F0D6FC09FB04F027
:103AC00050440BFB07F108444278921E09FB04F9AD
:103AD0000AEB09000BFB07FB10F80B10DFF8280AB4
:103AE00001F0C2FC9CA001F0BFFC0120804601E077
:103AF000761C4DE74046C0B2012801D0641C36E771
:103B00002800BDE8F28FF0B400220020002300243A
:103B10000021002947D14FF4C865DFF8F06905FBA3
:103B200001F0304490F83E0600283AD0002003000F
:103B300005FB01F0304490F83E06834231D205FB8C
:103B400001F0304490F83D0653FA80F00627B0FBB0
:103B5000F7FC07FB1C0004004FF4857005FB01F720
:103B6000374400FB04FC67447F78022F17DB05FB1A
:103B700001F7374400FB04FC67447F78052F0EDA19
:103B800005FB01F7374400FB04FC674405FB01FC1F
:103B9000B44400FB04F060448078401CB8705B1CA7
:103BA000C6E7491CB5E71000F0BC7047F0B502004D
:103BB0000023002642F60800DFF8544925586D1806
:103BC000B5F5205F01D3022018E000258D4214D204
:103BD0002658761C265042F60406575D54F806C057
:103BE00004F80C70A7597F1C4FF4205CB7FBFCFE57
:103BF0000CFB1E77A7516D1CE8E71800F0BD2DE9FE
:103C0000F04303000224002500260022002B04D0EC
:103C1000002902D00868062802D20120040097E09B
:103C200042F60807DFF8E8C85CF80700002824D04F
:103C30004FF420505CF800E01CF80EE0BEF1550F88
:103C400007D1012005000120DFF8C8E88EF8000048
:103C500013E05CF807E0BEF1010E4CF807E05CF8F9
:103C600000707F1C4CF800705CF80070B7FBF0FE31
:103C700000FB1E774CF80070D2E7DFF8988898F8C0
:103C80000000002801D1012D62D14FF4205E5CF8C4
:103C90000E0006005CF807000200002A11D01CF894
:103CA00006000D2805D102200500002088F800003C
:103CB00007E0521E761C3000B0FBFEF60EFB160627
:103CC000EBE7022D44D108685CF80E80B6EB0808DB
:103CD000404518D25CF80E805CF8070010EB08082D
:103CE000B8EB020842F6010080450CD3D1F8008001
:103CF00016F520595CF80E00B9EB0009C84502D250
:103D00000320040024E0002006005CF807000028DF
:103D10001DD05CF80E001CF8000098555CF80700F8
:103D2000401E4CF807005CF80E00401C4CF80E00DA
:103D30005CF80E00B0FBFEF80EFB18004CF80E000D
:103D40003000461C185C0D28DFD1002004000E60F6
:103D50002000BDE8F08300000D0A0000DC5A0120BD
:103D60002DE9F34F85B000200490002500240026A3
:103D70000020002700210022ADF8022000228DF84B
:103D80000120059A52788DF80020059A92788DF8D6
:103D90000420059A1278012A66D1002004009DF8BB
:103DA0000100002840F00381002C40F00081002039
:103DB00006004FF4C860DFF8541700FB04F20A4411
:103DC00092F83E2696424DD200FB04F20A4492F845
:103DD0003D2656FA82F20623B2FBF3FC03FB1C22BB
:103DE00015004FF4857200FB04F30B4402FB05FC45
:103DF00063445B78022B33DB00FB04F30B4402FBD0
:103E000005FC63445B78052B2ADA9DF8003000FB43
:103E100004FC8C4402FB05FE1CF80EC063451FD158
:103E200000FB04F0084402FB05F210440621417037
:103E300001208DF8010040F23D23DFF8DC26DFF899
:103E40005C050168DFF8580501F00EFB9DF80010D5
:103E5000DFF8C80601F008FB85A001F005FB01E0D2
:103E6000761CA6E7641C9AE79DF80000FFF73AFD70
:103E70000598C0780700059801794FF4807205987D
:103E8000407902FB0101ADF802103800C0B20228EF
:103E900006D0042804D0062802D0082840F08780E5
:103EA000FFB2BF1E022097FBF0F741F69C18DFF827
:103EB00070963800C0B208FB00F0484441F69A11F1
:103EC000405C072873DA40F2444041F6981A390002
:103ED000C9B208FB01F149443A00D2B208FB02F230
:103EE0004A4412F80A2042431144BDF802204A8095
:103EF0003900C9B208FB01F149443A00D2B208FBCB
:103F000002F24A4412F80A2042439DF804308B54CE
:103F1000BDF8021003910599891D02913900C9B2BB
:103F200008FB01F149443A00D2B208FB02F24A44CC
:103F300012F80A2000FB02F0084410F1040B039A67
:103F40000299584601F0DCFB3800C0B208FB00F0D3
:103F500048443900C9B208FB01F1494411F80A107C
:103F6000491C00F80A103800C0B208FB00F04844B1
:103F700010F80A0006213A00D2B208FB02F24A44C5
:103F800090FBF1F301FB130002F80A0041F69A10CE
:103F90003900C9B208FB01F149443A00D2B208FB2A
:103FA00002F809EB0802125C521C0A54FFE704985D
:103FB00007B0BDE8F08F2DE9FE4F002400200090EF
:103FC000002001904FF4086502955FF00008DFF8CB
:103FD000DC63370042460299380001F0E5FBA94650
:103FE0005FF0000ADFF81075BB4652464946584656
:103FF00001F0DAFB00956946300001F05FFE002811
:1040000016D1019501AB3A000099300001F0B7FDDF
:1040100001993800FFF7CAFD0095A8465FF0000936
:10402000B2464A464146504601F0BEFB009501E0CB
:1040300001201AE069463000FFF7E1FD002813D1A6
:10404000009840F20141884201D30A200190019575
:1040500001AB3A000099300001F0B7FD019938003A
:10406000FFF77EFE0095E5E72000BDE8FE8F00002B
:104070000D0A00003C7C012020CA02082DE9F04F07
:1040800085B0002400200026002500210291002197
:104090008DF80010002101915FF00008B8F1010FC8
:1040A00080F2C280002006004FF4C867DFF85C94FD
:1040B00007FB08F0484490F83E06864280F2B18043
:1040C00007FB08F0484490F83D0656FA80F00621B8
:1040D00090FBF1F201FB120004004FF4857A07FB1C
:1040E00008F048440AFB04F10844807A000207FB08
:1040F00008F149440AFB04F21144C97A50FA81F0EC
:10410000019007FB08F048440AFB04F1084440789A
:1041100006283CD107FB08F048440AFB04F1084498
:10412000407902282DD107FB08F048440AFB04F12E
:104130000844007B102812DB002307FB08F04844EA
:104140000AFB04F10844C27B07FB08F048440AFB61
:1041500004F10844817B0198FCF79CF911E00023ED
:1041600007FB08F048440AFB04F10844827B07FB84
:1041700008F048440AFB04F10844417B0198FCF72D
:1041800089F9684610F80810491C00F8081007FB68
:1041900008F048440AFB04F10844407805283ED161
:1041A00007FB08F048440AFB04F108444079022860
:1041B0002FD107FB08F048440AFB04F10844007BB8
:1041C000102813DB012307FB08F048440AFB04F125
:1041D0000844C27B07FB08F709EB07000AFB04FA57
:1041E0005044817B0198FCF755F912E0012307FB4D
:1041F00008F048440AFB04F10844827B07FB08F7F7
:1042000009EB07000AFB04FA5044417B0198FCF7D4
:1042100041F9684610F80810491C00F80810761C8F
:1042200042E718F1010839E70027012F80F2B0803A
:104230004FF4C868DFF8D49208FB07F0484490F8C0
:104240003E06002803D06846C05D002800D19DE0EE
:1042500008FB07F0484490F83E06401E0600002E7A
:1042600000F1948008FB07F0484490F83D0656FAA8
:1042700080F0062190FBF1F201FB120004004FF4E4
:10428000857A08FB07F048440AFB04F108444078AB
:10429000062808D008FB07F048440AFB04F108444C
:1042A0004078052870D13500002D22D408FB07F096
:1042B000484490F83D0655FA80F0062190FBF1F253
:1042C00001FB1200029008FB07F0484402990AFB28
:1042D00001F108444078002809D008FB07F0484461
:1042E00002990AFB01F108444078052801DB6D1EA4
:1042F000DAE7002D1FD4CDF810A008FB07F04844E2
:1043000002990AFB01F10844039008FB07F04844B6
:104310000AFB04F100EB010B049A0399584601F0E3
:10432000EFF908FB07F0484402990AFB01FA5044F0
:104330000021417028E008FB07F0484490F83E0651
:10434000801B401E08FB07F1494481F83E0608FB2C
:1043500007F0484490F83D16701C411808FB07F020
:10436000484480F83D1608FB07F0484490F83D06A5
:10437000062190FBF1F201FB120008FB07F809EBA4
:10438000080181F83D0601E0761E68E77F1C4CE7D6
:10439000002005B0BDE8F08F9CC90208CC7D01204B
:1043A00010C80208C0C6020898A10020DC490120FC
:1043B0002DE9F041ADF5016D002400250026002710
:1043C0005FF00208B8F10A0F80F290804FF40060AD
:1043D00002900DF10D0302AA03A94046C0B2FFF7F7
:1043E00062F9002840F07F804046022808D0042867
:1043F00059D0062858D008285DD00A2862D062E03B
:1044000001A83844417A4FF4807041437F1C01A8D1
:104410003844407A51FA80F005007F1C01A83844E6
:10442000407A06007F1C102E09D3103E4FF4807096
:10443000464301A83844407A56FA80F67F1C4FF470
:104440005673384A38480168384801F00DF801A819
:104450003844417A364801F007F829A001F004F801
:10446000B5F5EC6F0DD19DF80C00009002230122F0
:104470000299C91B89B201A838440930FBF7CCFF67
:1044800010E040F2DF7085420CD19DF80C000090E6
:10449000022300220299C91B89B201A838440930BD
:1044A000FBF7BAFF95E794E7029989B20DF10D0089
:1044B000FDF7F4FF8DE71F48002802D001A801F0A6
:1044C00046FE86E785E740F28F33164A16480168B4
:1044D000194800F0C9FF4146184800F0C5FF08A080
:1044E00000F0C2FF75E718F102086BE720000DF538
:1044F000016DBDE8F08100005C5201200D7E0120BD
:104500000D0A0000A8C9020808C60208DC5A0120EA
:10451000080801200E7E012040C90208B4C9020823
:1045200098A10020C0C90208CC7D0120C0C80208A3
:1045300058C602084F61020810C802082CC80208B9
:1045400038B50024FFF737FD0500FFF707FAFFF73E
:10455000DAFAFFF793FD280032BDF0B40246106886
:1045600095681318506803EB5004C0071DD54D44DF
:104570001BE013F8017B05F8017B491EF9D1A0B1BE
:10458000B60813F8011B06F00306032E08BF13F844
:10459000016B01EB06214942801C294405D011F82A
:1045A000016B05F8016B401EF9D1A3420ED013F840
:1045B000016B16F0030104BF13F8011BC91C30097D
:1045C0000F28DAD113F8010B0F30D6E7F0BC02F157
:1045D0000C007047001F5FF080730360001F4B08E2
:1045E0005B000360001F0FF21503036014380260C4
:1045F000001F7FF002030360203870477348006893
:1046000010F1010F07D0502080F31188BFF34F8FB6
:10461000BFF36F8FFEE7502080F31188BFF34F8FF9
:10462000BFF36F8FFEE7E0B569480168694A9142C0
:1046300007D1502080F31188BFF34F8FBFF36F8FE6
:10464000FEE700686449884207D1502080F3118852
:10465000BFF34F8FBFF36F8FFEE760480178019182
:10466000FF21017001788DF800109DF8001011F005
:1046700050015B4A11705B4907220A609DF80020D7
:10468000120608D50A68521E0A609DF800205200E2
:104690008DF80020F2E70A68D2F10702042A07D059
:1046A000502181F31188BFF34F8FBFF36F8FFEE767
:1046B0000A6812020A600A6812F4E0620A6001994C
:1046C00001704948016851F470010160016851F0BE
:1046D0007041016000F092F800203C49086001F050
:1046E0001FFE4248016851F04041016001F008FEA0
:1046F00000200EBD502080F31188BFF34F8FBFF311
:104700006F8F32490A68521C0A60096801290AD170
:1047100037490968090606D080F31188BFF34F8F27
:10472000BFF36F8FFEE7704728490868002807D15C
:10473000502080F31188BFF34F8FBFF36F8FFEE7D8
:104740000868401E08600868002802D1002080F335
:104750001188704780B5502080F31188BFF34F8FC8
:10476000BFF36F8F00F0FAFA002803D05FF080509B
:104770001F490860002080F3118801BDEFF3058018
:10478000102811D31B4A1268125C11000A00144B46
:104790001B78D2B29A4207D2502282F31188BFF31B
:1047A0004F8FBFF36F8FFEE70E4A1268124B1B68E4
:1047B00013F4E0639A4207D2502282F31188BFF3C8
:1047C0004F8FBFF36F8FFEE770470000B8000020E7
:1047D00000ED00E071C20F4170C20F4100E400E043
:1047E0000C7E0120887D012020ED00E034EF00E008
:1047F00004ED00E034CA02080CED00E00848002196
:1048000001600021074A1160074909684FF47A7274
:10481000B1FBF2F1491E054A1160072101607047A2
:1048200010E000E018E000E08C01002014E000E05F
:104830002DE9F84F84B006000F0090469946DDF848
:1048400038A0DDF83CB0404680B2800001F076FD33
:104850000500002D0BD0542001F070FD0400002C49
:1048600001D0256304E0280001F0F8FD00E00024F9
:10487000002C12D0002003900294CDF804B0CDF8A3
:1048800000A04B46424692B23900300000F00AF8D0
:10489000200000F07AF8012001E05FF0FF3005B061
:1048A000BDE8F08F2DE9F94F81B00C0016000C9F88
:1048B0000D9DDDF83880B00000905FF0A50BD8F8B2
:1048C00030A05A460099504600F06EFFD8F83000EC
:1048D00000EB8600B0F1040A5FEADA0A5FEACA0A6E
:1048E0001AF00700002807D0502080F31188BFF38A
:1048F0004F8FBFF36F8FFEE7002C15D0002081464D
:10490000B9F1100F0CD214F8090008EB090181F875
:10491000340014F80900002802D019F10109EFE76A
:10492000002088F8430002E0002088F83400052FBA
:1049300001D304200700C8F82C70C8F84470002088
:10494000C8F8480018F1040001F041FE18F1180001
:1049500001F03DFEC8F81080D7F10500C8F8180036
:10496000C8F824800020C8F84C00002088F85000C7
:10497000029A01995046FFF72DFEC8F80000002D5D
:1049800001D0C5F80080BDE8F78F38B50400FFF707
:10499000B1FEDFF834160868401C0860DFF82C56BA
:1049A0002868002806D12C60086801280DD100F085
:1049B00085FB0AE0DFF818060068002805D1E06AE8
:1049C0002968C96A884200D32C60DFF808060168AC
:1049D000491C0160DFF800160A680123E06A834081
:1049E0001A430A60211DDFF8F425E36A14204343CB
:1049F00002EB030001F0EEFDFFF796FEDFF8D005B5
:104A0000006800280DD02868C06AE16A884208D290
:104A10005FF08050DFF83C170860BFF34F8FBFF3A3
:104A20006F8F31BD70B50400FFF764FE002C03D119
:104A3000DFF89805056800E02500281D01F0F1FD6C
:104A400000280FD1DFF89415EA6A142042438858F1
:104A5000002807D1DFF880150A680123E86A83403F
:104A60009A430A60A86A002803D015F1180001F0E3
:104A7000D8FDDFF860050168491C0160DFF84C656E
:104A8000306885420AD1291DDFF8680501F0A2FDD2
:104A9000DFF8F0050168491C016009E0DFF828052E
:104AA0000168491E0160280000F056FB00F05DFB24
:104AB000FFF73AFEDFF818050068002818D03068C4
:104AC000854215D1DFF8F0050068002807D0502096
:104AD00080F31188BFF34F8FBFF36F8FFEE75FF056
:104AE0008050DFF870160860BFF34F8FBFF36F8FF1
:104AF00070BD2DE9F04104000D000026002C07D107
:104B0000502080F31188BFF34F8FBFF36F8FFEE704
:104B1000002D07D1502080F31188BFF34F8FBFF3D2
:104B20006F8FFEE7DFF890050068002807D050205F
:104B300080F31188BFF34F8FBFF36F8FFEE700F054
:104B40008FF8DFF8CC05D0F800802768EF192068CF
:104B5000804507D2206887420BD2B84509D2012090
:104B6000060006E02068874201D3B84501D2012043
:104B700006002760002E04D00021B7EB080000F0EB
:104B800089FB00F073F8002808D15FF08051DFF84E
:104B9000C4251160BFF34F8FBFF36F8FBDE8F08165
:104BA00038B505000024002D15D0DFF80C0500688D
:104BB000002807D0502080F31188BFF34F8FBFF338
:104BC0006F8FFEE700F04CF80021280000F062FB38
:104BD00000F04CF80400002C08D15FF08050DFF8A2
:104BE00074150860BFF34F8FBFF36F8F31BD1CB5D5
:104BF000DFF8800601900020009000238222DFF879
:104C000078160FF29140FFF713FE0400012C02D139
:104C100001F01CFD0400012C16D1502080F31188F6
:104C2000BFF34F8FBFF36F8F5FF0FF30DFF84C168D
:104C300008600120DFF8981308600020DFF8D01426
:104C40000860FFF7F0FC0AE014F1010F07D15020D3
:104C500080F31188BFF34F8FBFF36F8FFEE713BD53
:104C6000DFF854040168491C01607047F8B500255D
:104C70000026DFF844442068002807D1502080F344
:104C80001188BFF34F8FBFF36F8FFEE7FFF732FD41
:104C90002068401E20602068002857D1DFF82803D4
:104CA0000068002852D0DFF8C8150868002827D00F
:104CB000C868C068050015F1180001F0B2FC281D95
:104CC00001F0AFFCDFF810130A680123E86A8340A3
:104CD0001A430A60291DDFF80423EB6A14204343BA
:104CE00002EB030001F076FCE86ADFF8E0120968E5
:104CF000C96A8842D7D30120DFF894150860D2E74B
:104D0000002D01D000F031FADFF874753C68002CFA
:104D10000CD000F023F8002803D00120DFF8701534
:104D20000860641E002CF4D100203860DFF86005B4
:104D3000006800280AD0012006005FF08050DFF8EC
:104D400014140860BFF34F8FBFF36F8FFFF7ECFCB5
:104D50003000F2BDDFF8B803006870472DE9F0417C
:104D60000027DFF85403006800286ED1DFF8A003A5
:104D70000468641C0460002C1CD1DFF80815086866
:104D80000068002807D0502080F31188BFF34F8FB0
:104D9000BFF36F8FFEE7D1F80080DFF8EC04026804
:104DA0000A60C0F80080DFF8E4040168491C016073
:104DB00000F0DBF9DFF8C484D8F80000844238D36F
:104DC000DFF8C01408680068002804D15FF0FF30E5
:104DD000C8F800002DE00868C068C0680500686871
:104DE0000600B44202D2C8F8006022E0281D01F09B
:104DF00018FCA86A002803D015F1180001F011FC76
:104E000075490A680123E86A83401A430A60291D2C
:104E1000724AEB6A1420434302EB030001F0DAFB11
:104E2000E86A6A490968C96A8842C9D3012007004B
:104E3000C6E7664800686949C26A14204243885838
:104E4000022807D30120070004E0DFF834040168DA
:104E5000491C0160DFF838040068002801D00120F7
:104E600007003800BDE8F081DFF84C020068002838
:104E700004D00120DFF8181408602BE00020DFF8D0
:104E80001014086054480068B0FA80F1D1F11F0195
:104E90001422524B02FB01F01858002807D1502071
:104EA00080F31188BFF34F8FBFF36F8FFEE702FBD4
:104EB00001F203EB0200426852684260426810F15E
:104EC00008039A4202D14268526842604068C06852
:104ED0003E4A1060704738B504000D00002C07D121
:104EE000502080F31188BFF34F8FBFF36F8FFEE721
:104EF000DFF82404006810F11801200001F076FBAF
:104F00000121280000F0C6F931BD70B505000E0082
:104F10001400002D07D1502080F31188BFF34F8F6C
:104F2000BFF36F8FFEE7DFF8F003006810F11801A0
:104F3000280001F04FFB002C02D05FF0FF3006008C
:104F40002100300000F0A6F970BD38B50500E86812
:104F5000C468002C07D1502080F31188BFF34F8F15
:104F6000BFF36F8FFEE714F1180001F05AFB5248AF
:104F70000068002813D1201D01F053FB16490A6870
:104F80000123E06A83401A430A60211D134AE36A41
:104F90001420434302EB030001F01CFB05E014F175
:104FA0001801DFF8CC0201F015FB08480068C06A60
:104FB000E16A884205D201200121DFF8D422116084
:104FC00000E0002032BD0000A07D0120907D012086
:104FD000AC7D0120BC7D0120A87D0120987B0120B3
:104FE000DFF8A81209680160DFF830130968416032
:104FF00070470000987C01202DE9F04104000D006D
:10500000002C07D1502080F31188BFF34F8FBFF3DE
:105010006F8FFEE7002D07D1502080F31188BFF37A
:105020004F8FBFF36F8FFEE7FFF764FB38480668CA
:105030006768F71B286810F1010F02D15FF00008C4
:105040001BE0DFF8480200682168884205D06068EC
:10505000864202D35FF001080FE02868874208D239
:105060002868C01B28602000FFF7BAFF5FF0000827
:1050700003E0002028605FF00108FFF755FB404681
:10508000BDE8F0819C7D01200120DFF8041208605A
:105090007047000010B5040000F03CF8DFF8800213
:1050A00000680228F8D35FF080506F490860BFF3B2
:1050B0004F8FBFF36F8FEFE7C87D012070B50024DD
:1050C000052C09D2DFF85802142101FB04F1084431
:1050D00001F06EFA641CF3E7DFF84852280001F093
:1050E00067FADFF84462300001F062FADFF880010D
:1050F00001F05EFADFF8340201F05AFA5B4801F081
:1051000057FADFF880010560DFF82402066070BD01
:10511000A47D012038B5DFF81C522868002817D07C
:10512000FFF7E8FADFF80402C068C0680400201D39
:1051300001F077FADFF800020168491E0160286873
:10514000401E2860FFF7F0FA200000F005F8E2E7C3
:1051500031BD000004ED00E010B50400206B01F04B
:105160007DF9200001F07AF910BDDFF818211068F0
:105170000068002805D15FF0FF30DFF800211060E3
:1051800007E01068C068C06801004868DFF8EC20DC
:1051900010607047DFF8A4010068002801D10120E9
:1051A00007E0DFF89C010068002801D1022000E040
:1051B0000020704770B5040025000026002C50D058
:1051C000DFF854010068854207D0502080F3118831
:1051D000BFF34F8FBFF36F8FFEE7A86C002807D196
:1051E000502080F31188BFF34F8FBFF36F8FFEE71E
:1051F000A86C401EA864E86A696C884231D0A86C2B
:1052000000282ED1281D01F00CFA00280FD1DFF85C
:105210001011EA6A142042438858002807D1DFF8A9
:1052200024110A680123E86A83409A430A60686C83
:10523000E862E86AD0F10500A861DFF808110A68A1
:105240000123E86A83401A430A60291DDFF8D02051
:10525000EB6A1420434302EB030001F0BBF9012089
:105260000600300070BD000004ED00E0AC7C0120C1
:10527000847C0120C47D012008CA0208C07D012071
:10528000B07D0120947D0120987D0120B87D012012
:10529000B47D01202DE9F04105000C001F4807688E
:1052A000DFF87480D8F80000001D01F0BAF900287A
:1052B00008D1D8F8000023490A680123C06A834056
:1052C0009A430A6015F1010F08D1002C06D0D8F8D6
:1052D0000000011D1C4801F07DF91AE0E8190600E4
:1052E000D8F800004660BE4207D2D8F80000011D81
:1052F0000F48006801F07AF90BE0D8F80000011DB2
:105300001248006801F072F9114801688E4200D21B
:105310000660BDE8F0810000907D0120A47D0120A1
:10532000987B01205C7C0120707C0120987C01200E
:10533000987D01209C7D0120A07D0120AC7D012075
:10534000C87D0120A87D0120AC7C0120947D012036
:10535000C07D0120024803490160FEE7704700005C
:105360000CED00E00400FA0580B5012080F31388FD
:10537000FFF7F0FF01BD30B4002513E050F8042B17
:10538000D30744BFA9F101039A18091F042942F861
:10539000045BFAD213468C0744BF15809B1CC907D7
:1053A00048BF1D7050F8041B0029E7D130BC70477E
:1053B0007FB504000D000121022001F053FC200004
:1053C00080B20290ADF804500020ADF80600002035
:1053D000ADF80C001E4E01A9300001F09FFC012227
:1053E0000121300001F0ECFC0121300001F0CBFC88
:1053F0001D208DF8000008208DF8010000208DF898
:10540000020001208DF80300684601F006FD7FBD13
:1054100010480068704770B50024EFF311855020E4
:1054200080F31188BFF34F8FBFF36F8F084E0121B8
:10543000300001F0D1FC012803D106480168491C65
:1054400001600121300001F0DEFC85F3118870BDA0
:1054500000040040CC7D012080B55FF4E13001F014
:105460002BFD01F08CFD01BD0EB438B595B00400E4
:105470006846542100F04AF819AD2B002200502153
:10548000684601F039FE684601F06EFD16B030BC8A
:105490005DF810FB70B504000D0016003200290005
:1054A000200001F083FE002801D0012000E0002050
:1054B00070BD70B504000D001600320029002000F8
:1054C00001F0B3FE70BDF8B504000D00002601F038
:1054D00011FF002001F0FCFE2900200001F0B0FEC9
:1054E0000700012001F0F4FE01F012FF3800C0B205
:1054F000F2BD8268521C8260426832B10268531C5D
:10550000036011704168491E41607047002201F03C
:10551000D3BF0268531C03601170704710B40020A1
:10552000B0F5807F18DA00221100174A42F82000F7
:1055300008290FDA12F82030DB0702D5134B1B685D
:1055400000E0002352F8204093EA540342F8203050
:10555000491CEDE7401CE3E710BC7047704730B4CE
:105560000023C043002494420AD2074B0D5D4540FE
:1055700005F0FF0553F8253093EA1020641CF2E78C
:10558000C04330BC704700003075012028CA0208B3
:105590000300002013F0030F09D0521E22BF13F89E
:1055A000010B11F801CBB0EB0C00F3D0704711F0F8
:1055B000030F14D1121F22BF53F8040B51F804CB70
:1055C0006045F7D0121D0AD200BA9CFA8CFCB0EBF1
:1055D0000C0038BF6FF0000088BF01207047521EDA
:1055E00022BF13F8010B11F801CBB0EB0C00F6D081
:1055F000521C08BF1046704780B501F077FF0020AD
:1056000002BD70B50400002501F090FF200080B2BB
:105610004FF4807190FBF1F04000A030C0B202F076
:1056200018F801F0B9FF200080B24FF4807190FBB0
:10563000F1F201FB1200C0B202F00BF801F0ACFF76
:1056400001F074FFA12002F004F801F0A5FF002092
:1056500002F031F8060001F084FF3000C0B270BDE6
:1056600038B504000D0001F061FF200080B24FF456
:10567000807190FBF1F04000A030C0B201F0E9FF72
:1056800001F08AFF200080B24FF4807190FBF1F2AC
:1056900001FB1200C0B201F0DCFF01F07DFF280029
:1056A000C0B201F0D6FF01F077FF01F05AFF0820E9
:1056B00002F09CF831BD70B504000D0016003000FA
:1056C00080B2002808D0200080B2FFF79AFF641C47
:1056D00028706D1C761EF2E770BD70B504000D00D9
:1056E00016003000461E80B2002807D0297820001E
:1056F00080B2FFF7B5FF641C6D1CF2E770BD0100BE
:1057000062B38B0708D0521E11F8013B00F8013B31
:1057100000F024808B07F6D1830740F0208000BF83
:10572000103A07D330B4B1E83810103AA0E8381076
:10573000F9D230BC530724BFB1E80810A0E8081024
:1057400044BF51F8043B40F8043BD20724BF31F872
:10575000022B20F8022B44BF0B7803707047121FF6
:1057600017D35B0009D151F8043B20F8023B1B0C16
:10577000121F20F8023BF6D20BE051F8043B00F870
:10578000013B1B0A20F8023B1B0C121F00F8013BD7
:10579000F3D238BF121D521E24BF11F8013B00F88E
:1057A000013BF8D87047000062F30F2262F31F42FA
:1057B000401810F0030308D0C91A1FD3DB0748BFF5
:1057C00000F8012D28BF20F8022D130030B4144634
:1057D0001546103928BF20E93C00FAD8490728BFF0
:1057E00020E90C0048BF40F8042D890028BF20F8AC
:1057F000022D48BF00F8012D30BC7047C91818BFF2
:1058000000F8012DCB0728BF00F8012D70470000DC
:1058100038B588B00025FCF7D7FF00284DD0684682
:10582000FCF7AFFF002848D1009804909DF80C00C9
:105830008DF814009DF80D000400002001009DF873
:105840000C2089B292B291420BD26946020092B208
:105850001144097904AA03009BB21A445171401CF7
:10586000ECE70500280080B2082807DA002004A928
:105870002A0092B2114448716D1CF3E72000C0B2B7
:105880000128C8D10098B0F5EC6F04D0009840F220
:10589000DF71884205D104A92000C0B2FDF7FAF8F3
:1058A000B9E7009810F4E060B0F5E06FB3D004A958
:1058B0002000C0B200F003F8ADE709B030BD70B50C
:1058C00004000D000020296840F20142914200D1FD
:1058D000401C00263000C0B200283CD12A68534941
:1058E0003300DBB209204343C85A824231D132002F
:1058F000D2B20920424301EB02008078012828D16E
:1059000022003300DBB20920434301EB030000799E
:10591000D2B282421DD12A793300DBB2092043433F
:1059200001EB0300C078824213D13200D2B20920C9
:1059300042430A44D2F8050000280AD03200D2B20D
:105940000920424301EB0200D0F8051028008847E7
:1059500001E0761CBEE729002000C0B201F05CFF28
:1059600070BD38B505000C0031480078002803D11F
:105970002068B0F5E26F06D1002C04D02900C9B22E
:105980002000FCF7B6FE31BDF0B585B005000E0075
:10599000002728480078002803D13068B0F5ED6F63
:1059A0003FD1306800900020019000208DF8080061
:1059B00000208DF8090030798DF80A0000200700DA
:1059C0003800317980B289B288420AD2380080B278
:1059D0003044407969463A0092B21144C8727F1C43
:1059E000EEE7307908280BDA380080B2082807DAA9
:1059F000002069463A0092B21144C8727F1CF3E756
:105A00002800C0B2012804D1684602F0E2F8040080
:105A100007E02800C0B2022803D1684602F08BF9E3
:105A200004002000C0B205B0F0BD000060C902084B
:105A300090010020910100200CB430B583B00A46DB
:105A400006A90291044600250194009502AB01A924
:105A5000084878441E3002F09DF9019A157000281C
:105A60004EBF04460198041B204603B030BC5DF8CD
:105A70000CFB00BF9FFAFFFF2DE9FE4F04000D0055
:105A800016001F005FF000085FF0000A5FF00009D9
:105A900000200290002C08D0002E06D0002F04D049
:105AA000002D02D03868A84201D2012065E0386894
:105AB000019000200090B346009A01995846FFF7E4
:105AC00073FE552006F80A001AF1010AAA2006F80A
:105AD0000A001AF1010A0021A9423ED200208146A3
