:020000040800F2
:1000000050EA01204DB30008ADAE0008AFAE0008C5
:100010000DAF00080FAF000811AF0008000000008E
:100020000000000000000000000000002D5B000840
:1000300013AF000800000000D55A0008496F0008FF
:1000400031B4000835B4000839B400089D680008D0
:100050003DB4000841B4000845B4000849B40008A4
:100060004DB4000851B4000855B4000859B4000854
:1000700087A100085DB40008BDA1000861B40008B4
:1000800065B4000869B400086DB4000871B40008D4
:100090009F70000875B4000879B400087DB40008AA
:1000A00081B4000885B4000889B400088DB4000844
:1000B00091B400085150000895B4000899B40008A4
:1000C0009DB40008A1B40008A5B40008A9B40008B4
:1000D000ADB40008B1B40008B5B4000847A10008E9
:1000E000B9B40008BDB40008C1B40008C5B4000824
:1000F000C9B40008CDB40008D1B40008D5B40008D4
:10010000D9B40008DDB40008E1B40008E5B4000883
:10011000E9B40008EDB40008F1B40008F5B4000833
:10012000F9B40008FDB4000801B5000805B50008E1
:1001300009B500080DB5000811B5000815B500088F
:100140000772000819B500081DB5000821B50008A0
:1001500025B5000829B500082DB5000831B50008FF
:1001600035B5000839B500083DB5000841B50008AF
:1001700045B5000849B500084DB50008000000006D
:1001800051B5000855B5000878B587B00020ADF826
:10019000000000208DF8020003A80021016000206B
:1001A000002504A800210022002380E80E0001A8F9
:1001B00000210022C0E90012DFF8000B00210170CD
:1001C0000021ADF8001009E00021BDF80020024434
:1001D0005170BDF80010491CADF80010BDF80010BA
:1001E000B1F5886FF0D30021A0F84114012180F807
:1001F00043140020ADF800000BE00020DFF8341BB2
:10020000BDF8002011448870BDF80000401CADF816
:100210000000BDF800006428EFD30020DFF8141BB5
:100220000880DFF8140B0021016000210171DFF864
:100230000C0B0021016000210171DFF8040B00218B
:10024000016000210171DFF8500B002101600021E5
:1002500001710020DFF8441B08700020DFF8401B0C
:1002600008700020DFF83C1B08700220DFF8381B04
:1002700008700020DFF8341B08700120DFF8301B05
:1002800008700120DFF82C1B08700020DFF8281B05
:1002900008700020DFF8241B08700020DFF8201B06
:1002A0000860DFF8200BDFF8201B08600020DFF873
:1002B0001C1B08600020DFF8901B08600020DFF89E
:1002C0008C1B08600020DFF8881B08600020DFF826
:1002D000841B08600020DFF8801B08700020DFF816
:1002E0007C1B08705FF0FF30DFF8741B0860002093
:1002F000ADF8000010E00020DFF8681BBDF800201A
:1003000088540020DFF8601BBDF800208854BDF839
:100310000000401CADF80000BDF800000428EADB36
:1003200001220DF102010A2002F00EFA9DF80200EE
:10033000002803D09DF80200012801D101200CE023
:100340009DF80200032803D09DF80200022801D185
:10035000002002E0DFF8140B0078DFF8101B0870B3
:100360009DF80200002803D09DF80200022801D168
:1003700001200AE09DF80200032803D09DF8020046
:10038000012801D1002000E00878DFF8E41A0870A5
:10039000DFF8E04A01222100002002F0D5F92078A0
:1003A000012808D02078022805D02078032802D020
:1003B000012020700AE02078022807D1FF20ADF844
:1003C000000001226946002002F0A2F900241EE08C
:1003D0001CE000252800C0B2002840F0AA812800B7
:1003E000C0B2002812D1210089B20720414306EB98
:1003F0000100827892B2DFF8241C23009BB2072010
:10040000434306EB0300007902F082F9641C2000EC
:1004100080B2072880F0AD81DFF8986B210089B2A7
:1004200007204143705A4FF28311884250D1210076
:1004300089B20720414306EB0100827892B204A9F9
:1004400023009BB20720434306EB0300007902F030
:100450007BF90020ADF8000004E0BDF80000401C6E
:10046000ADF80000BDF80010220092B20720424310
:1004700006EB0200807880B2814211D204A8BDF858
:100480000010405CDFF8301BBDF80020895C88421A
:1004900001D1012500E000252800C0B20028DCD1F0
:1004A0002800C0B20028B1D1210089B20720414301
:1004B00006EB0100827892B2DFF8FC1A23009BB2AF
:1004C0000720434306EB0300007902F021F99DE782
:1004D000210089B207204143705A4FF2911188429E
:1004E00051D1210089B20720414306EB01008278F7
:1004F00092B203A923009BB20720434306EB0300FB
:10050000007902F021F90020ADF8000004E0BDF808
:100510000000401CADF80000BDF80010220092B2AF
:100520000720424306EB0200807880B2814211D25C
:1005300003A8BDF80010405CDFF87C1ABDF800206D
:10054000895C884201D1012500E000252800C0B265
:100550000028DCD12800C0B200287FF457AF21006A
:1005600089B20720414306EB0100827892B2DFF89E
:10057000B01A23009BB20720434306EB0300007927
:1005800002F0C6F842E7210089B207204143705AC1
:100590004FF28711884251D1210089B2072041438F
:1005A00006EB0100827892B201A923009BB20720DA
:1005B000434306EB0300007902F0C6F80020ADF8D3
:1005C000000004E0BDF80000401CADF80000BDF8DC
:1005D0000010220092B20720424306EB020080780E
:1005E00080B2814211D201A8BDF80010405CDFF852
:1005F000341ABDF80020895C884201D1012500E051
:1006000000252800C0B20028DCD12800C0B2002894
:100610007FF4FCAE210089B20720414306EB0100C4
:10062000827892B2DFF8FC1923009BB20720434383
:1006300006EB0300007902F06BF8E7E6210089B2CF
:1006400007204143705A4FF28C11884251D121004A
:1006500089B20720414306EB0100827892B201A9DA
:1006600023009BB20720434306EB0300007902F00E
:100670006BF80020ADF8000004E0BDF80000401C5D
:10068000ADF80000BDF80010220092B207204243EE
:1006900006EB0200807880B2814211D201A8BDF839
:1006A0000010405CDFF8E81ABDF80020895C884241
:1006B00001D1012500E000252800C0B20028DCD1CE
:1006C0002800C0B200287FF4A1AE210089B2072023
:1006D000414306EB0100827892B2DFF8B41A23009E
:1006E0009BB20720434306EB0300007902F010F8A9
:1006F0008CE6210089B207204143705A4FF29011D5
:1007000088427FF465AE210089B20720414306EBA1
:100710000100827892B201A923009BB207204343D3
:1007200006EB0300007902F00FF80020ADF800009E
:1007300004E0BDF80000401CADF80000BDF800105A
:10074000220092B20720424306EB0200807880B27A
:100750008142BFF444AE01A8BDF80010405CDFF850
:10076000BC18BDF80020895C88427FF432AE0125B8
:1007700030E608B070BD38B5ADF5896D00282CD0D5
:10078000DDF85844002505788DF800504D1EADF871
:1007900041548DF843248DF844348DF845440022AB
:1007A00009E013009BB203445B786C461500ADB2C0
:1007B0002C446370521C13009BB20C00A4B2641E44
:1007C000A342EEDB684602F083F80FF65D0241F2C9
:1007D0005041DFF86C0502F00DF90DF5806D13B096
:1007E00030BD10B440F21974A0421DD10800C0B24F
:1007F00050280CD11000C0B2022808D11800C0B295
:10080000002804D10020DFF8A81508700CE0C9B258
:10081000512909D1D2B2012A06D1DBB2002B03D172
:100820000020DFF89015087010BC70472DE9F843E0
:1008300000240020002000F0CBFA02F0C7F80028C6
:1008400000F0AC80DFF85C552878002840F0A680E6
:10085000DFF8E4940FF269423221484602F0CAF808
:1008600001202870DFF85464300002F08CF896F80C
:10087000447496F84584731C96F84324B6F84114E2
:10088000307800F0A9F8484602F0C6F8DFF8AC046A
:1008900002F0C2F896F8430400280DD1DFF80C05E9
:1008A0000178112976D00178122973D00178312985
:1008B00070D000787E286DD0DFF8E404007801283D
:1008C00004D1DFF8E8040078002863D0DFF8DC14F6
:1008D000087800282DD1DFF85C94B9F800000028D2
:1008E00027D03800C0B201280FD100E0641C2000DE
:1008F000C0B2032809DAB9F8002019F1020140F268
:10090000197002F0D3FC0028F0D0FFB2022F09D1F9
:1009100019F10203B9F8002040F219714046C0B243
:1009200002F0F0FC002028700020DFF8701408703E
:1009300030E0087800282DD0DFF8F8437F20A07041
:100940003078E07008782071032020803800C0B231
:1009500001280ED1002600E0761C3000C0B203282A
:1009600007DA0322A11C40F2197002F09FFC002854
:10097000F2D0FFB2022F07D1A31C228840F21971D6
:100980004046C0B202F0BEFC002028700020DFF814
:100990000C1408700020DFF89C130880DFF8104466
:1009A0002078002803D100F044FB01202070DFF8FC
:1009B0000444207800280DD1DFF8145C2878401C0E
:1009C00028702878142805D100F0E4FB012020705D
:1009D00000202870BDE8F183F8B505000C00110077
:1009E0001A0000200020002A00F06781002301E0A7
:1009F00000205B1C1E00F6B20B2E17D20E26DFF86D
:100A0000C0779C465FFA8CFC06FB0CFCBC449CF84F
:100A100001C0AE465FFA8EFEF445EAD11800C0B2BE
:100A200006FB00F6B85D0028E2D00120C0B2012824
:100A300040F03A8120000C00E4B2012C40F09B8091
:100A40000024DFF85C532C70DFF828442478012C54
:100A500005D0C0F03281032C5FD030D32DE10E25BC
:100A6000DFF85C671C00E4B26C433444A478002CCB
:100A700004D17F20DFF8341308701FE0DFF828432B
:100A800024781F00FFB26F433744BF78BC4206D0C2
:100A90001C00E4B26C433444A478022C0BD11C003B
:100AA000E4B205FB04F53544D5F80A40DBB2C9B21F
:100AB00080B2A04702E03320BC490870FDE00E255B
:100AC000DFF8FC661C00E4B26C433444E478002C8C
:100AD00003D17F20B54908701EE0B34C24781F0075
:100AE000FFB26F433744FF78BC4206D01C00E4B22B
:100AF0006C433444E478022C0BD11C00E4B205FBB7
:100B000004F53544D5F80A40DBB2C9B280B2A0473B
:100B100002E03320A5490870CFE00E25DFF8A0667B
:100B20001C00E4B26C4334442479002C03D17F20B0
:100B30009E4908701EE09C4C24781F00FFB26F4352
:100B400037443F79BC4206D01C00E4B26C433444C5
:100B50002479022C0BD11C00E4B205FB04F53544CA
:100B6000D5F80A40DBB2C9B280B2A04702E0332018
:100B70008E490870A1E00C00E4B2002C40F09D808A
:100B8000BC4C2478012C05D0C0F09780032C5DD09C
:100B90002ED392E00E25DFF828661C00E4B26C43E9
:100BA00034446479002C03D17F20804908701EE012
:100BB0007D4C24781F00FFB26F4337447F79BC42DD
:100BC00006D01C00E4B26C4334446479022C0BD18F
:100BD0001C00E4B205FB04F53544D5F80A40DBB24D
:100BE000C9B280B2A04702E033207049087064E0C7
:100BF0000E25DFF8CC651C00E4B26C433444A479C4
:100C0000002C03D17F20694908701EE0664C2478CF
:100C10001F00FFB26F433744BF79BC4206D01C00AF
:100C2000E4B26C433444A479022C0BD11C00E4B22E
:100C300005FB04F53544D5F80A40DBB2C9B280B2F1
:100C4000A04702E033205949087036E00E25DFF84E
:100C500070651C00E4B26C433444E479002C03D189
:100C60007F20524908701EE04F4C24781F00FFB2CD
:100C70006F433744FF79BC4206D01C00E4B26C439A
:100C80003444E479022C0BD11C00E4B205FB04F5DA
:100C90003544D5F80A40DBB2C9B280B2A04702E0C1
:100CA00033204249087008E0C9B2012905D111205A
:100CB0003E49087000203A490870F1BD50DB012020
:100CC00038B50024684600210160344D2878401C66
:100CD000287028781F280BD3174801F09DFE17486D
:100CE00001F09AFE00202F490870002028701FE0B4
:100CF0007F208DF80000DFF8A40900788DF801004E
:100D000078208DF8020000E0641C2000C0B20328A7
:100D100007DA0322694640F2197002F0C7FA002888
:100D2000F2D0DFF8F82A40F2DC51044801F062FE0C
:100D300031BD000098E3012050E501205CE5012071
:100D400068E5012080B5DFF8D80A0078012802D1D3
:100D500001F067FA1EE0DFF8CC0A0078012802D122
:100D600001F0FDF916E0DFF8C00A0078012802D191
:100D700001F05CFB0EE0DFF8B40A0078012802D134
:100D800001F0FCF906E0DFF8380B0078012801D10A
:100D900001F08CFAFEE7000074E501203AE601203C
:100DA0003BE601203CE60120AA0000203DE60120B0
:100DB000AC000020AD0000203EE601203FE601200F
:100DC000ACE501204129336588000020B0E5012011
:100DD00080B50020DFF8481A0A78022A03D10120E2
:100DE00000220A7022E0DFF83C1A0A78022A03D1B6
:100DF000012000220A7019E0DFF82C1A0A78022A72
:100E000003D1012000220A7010E0DFF8201A0A78CE
:100E1000022A03D1012000220A7007E0DFF8A01A9D
:100E20000A78022A02D1012000220A70C0B20028EA
:100E300008D003F02DFBDFF8380B006803F0A9FCA5
:100E400003F040FB01BD0000B4E50120B8E501203E
:100E5000BCE50120C0E5012040E6012041E601207B
:100E60008C000020A4E50120A8E50120A8000020B6
:100E7000A9000020AB00002070B500210025DFF89C
:100E8000F44A00262670002A00F0938080B20128E0
:100E900058D10E20DFF828631900C9B2414331440C
:100EA000097A012906D1117811F07F01157815F022
:100EB000800501E0117800250A00D2B2012A04D091
:100EC0003DD3032A25D00ED339E01A00D2B200FB5D
:100ED00002F03044407AC00702D41220207001E0B2
:100EE0002078207030E01A00D2B200FB02F03044CB
:100EF000407A800702D41220207009E0DFF8780AD7
:100F00000078012802D17E20207001E02078207036
:100F10001AE01A00D2B200FB02F03044407A4007D7
:100F200002D41220207009E0DFF84C0A0078022871
:100F300002D17E20207001E02078207004E0122091
:100F4000207001E0132020702800C0B2002804D0D7
:100F50002078002801D1012005E02078002801D167
:100F6000002000E00120DFF8142A1070EDB2002DFF
:100F700018D12078002815D1DFF8042A904DDBB273
:100F80000E20434305EB0300407840309070D17051
:100F9000002010713220507101209071F420D07126
:100FA000062010802078002803D10800C0B200F08D
:100FB00005F870BD14AF000868B3000810B5DFF87D
:100FC000B84920700220DFF8D01A08702078012874
:100FD00007D00FF2550241F25041DFF8C00A01F08C
:100FE00009FD207802280DD1DFF89009007800284B
:100FF00004D00020DFF8A81A087003E00120DFF811
:10100000A01A0870DFF89C0A0178022902D000219A
:10101000017001E00178017010BD000088B2000885
:1010200028B40008DCB3000880B50120FFF7C6FF34
:1010300001BD704770B500210025DFF83849002652
:101040002670002A00F0A28080B2012866D10E200E
:101050005B4E1900C9B241433144097A012906D1D6
:10106000117811F07F01157815F0800501E01178F5
:1010700000250A00D2B2012A07D04CD3032A20D07F
:1010800011D3052A39D02AD345E01A00D2B200FB89
:1010900002F03044407AC00702D41220207001E0F0
:1010A000207820703CE01A00D2B200FB02F03044FD
:1010B000407A800702D41220207001E0207820704E
:1010C0002EE01A00D2B200FB02F03044407A400712
:1010D00002D41220207001E02078207020E01A0055
:1010E000D2B200FB02F03044407A000702D4122052
:1010F000207001E02078207012E01A00D2B200FBCC
:1011000002F03044407AC00602D41220207001E080
:101110002078207004E01220207001E0132020705D
:101120002800C0B2002804D02078002801D1012076
:1011300005E02078002801D1002000E00120DFF840
:101140003C281070EDB2002D10D1207800280DD170
:10115000DFF82C581A4EDBB20E20434306EB030097
:1011600040784030A870E97002202880207800285C
:101170000CD1DFF8180B01701078002804D1012081
:10118000DFF80C1B087001E000F004F870BD0000EF
:101190000CB3000880B5DFF8F40A0078012807D006
:1011A0000DD3032808D006D3052807D005D306E0C1
:1011B00003F00EFF03E002E001E000E0FFE701BD05
:1011C00010AE00082DE9F84F1400002500225FF052
:1011D000000C5FF0000EDFF89C6700223270002CDC
:1011E00000F0C7810200100080B2002800F0A88142
:1011F0001F00DFF8A08A3B00DBB20E20434308EB60
:101200000300007A012807D194F8009019F07F09B3
:10121000257815F0800502E094F8009000255FF035
:10122000000A8DF8001001E01AF1010A5046C0B220
:1012300003287ADA0620DFF8601A5346DBB243430C
:10124000CB5C012BF0D15346DBB243430B449B787C
:10125000CB465FFA8BFB5B4509D05346DBB2434379
:101260000B44DB78CB465FFA8BFB5B45DCD15FF050
:10127000010EDFF804371B78012B04D050D3032B69
:1012800034D019D34CE09DF80030012B09D15346DE
:10129000DBB200FB03F0084490F804E01EF0010EFE
:1012A00009E05346DBB200FB03F008440079C0F3C9
:1012B000C00E1EF0010E33E09DF80030012B0AD164
:1012C0005346DBB200FB03F008440079C0F3400E44
:1012D0001EF0010E09E05346DBB200FB03F00844A8
:1012E0000079C0F3001E1EF0010E19E09DF80030D9
:1012F000012B0AD15346DBB200FB03F0084400790E
:10130000C0F3800E1EF0010E09E05346DBB200FB75
:1013100003F008440079C0F3401E1EF0010EFFE701
:101320007046C0B201287FF47FAF7046C0B200287B
:1013300000F0F380DFF860B949465346DBB206207F
:1013400043430BEB03008078C9B281425BD192B278
:10135000012A55D1DFF84C472078022802D13720E6
:101360003070EFE02078032823D1DFF82C070178D4
:101370005FFA8AFA062000FB0AFA0BEB0A004078B3
:10138000814216D1DFF8F815FFB20E20474308EB73
:10139000070040784030887081F803900020087181
:1013A00000204871002088710020C8710620088044
:1013B000C8E0DFF8E8A8504600F0DDF8DFF8C01517
:1013C000FFB20E20474308EB07004078403088709A
:1013D00081F803909AF8000008719AF801004871AA
:1013E0009AF8020088719AF80300C87106200880F4
:1013F00001202070DFF8A818504600F0FFF8A1E0A7
:10140000132030709EE049465346DBB2062043432A
:101410000BEB0300C078C9B2814240F0938092B2D6
:10142000052A77D1DFF87C060078012867D10122F0
:10143000DFF87018092001F087F9DFF86408617897
:10144000027891422DD1A1784278914229D1E17858
:101450008278914225D12179C078814221D103201F
:10146000DFF8401608705FFA8AFA062000FB0AFAD5
:101470000BEB0A004078DFF8201608700020DFF838
:1014800024180870DFF8F814FFB20E20474308EB69
:10149000070040784030887081F80390022008806F
:1014A00026E0DFF800080078401CDFF8F817087025
:1014B000DFF8F0070078032814DB362030700220B4
:1014C000DFF8E01508700FF2C9125FFA8AFA0620F9
:1014D00000FB0AFA0BEB0A004179DFF8CC0701F0B8
:1014E00089FA05E0352030700020DFF8B815087063
:1014F0000122DFF8B017092001F00AF922E0DFF835
:10150000A4050078022802D1372030701AE0242088
:10151000307017E01320307014E05FFA8CFCBCF1DF
:10152000000F02D1122030700CE05FFA8EFEBEF187
:10153000000F02D17E20307004E03078307001E07E
:1015400013203070EDB2002D07D03078002804D180
:101550000120DFF8281408700BE03078002804D14F
:101560000020DFF81814087003E00120DFF80C14E5
:101570000870BDE8F18F1CB50400002C27D003F0E3
:1015800064FDDFF8201C086000F024F8207000F0F3
:1015900021F8607000F01EF8A07000F01BF8E070F9
:1015A0004FF4AC63DFF80427DFF804070168DFF8C5
:1015B000040703F077FDE0780090A3786278217843
:1015C000DFF8F40603F06EFD93A003F06BFD13BD8E
:1015D00047E6012043F23900DFF8C81B0A6800FB28
:1015E0000200086008684FF6FF71B0FBF1F0FF21C0
:1015F000B0FBF1F201FB1200C0B270471CB50C0049
:1016000000210021002842D0002C40D002785FF059
:1016100080714A4343785FF4803101FB0322837871
:101620004FF4807101FB0322C0781218002109E0F9
:10163000520006E0002AFBD55200DFF8380B0068A4
:101640004240491C0800C0B22328F3DB1000000E02
:1016500020701000000C60701000000AA070E27092
:1016600040F29E53DFF8102BDFF844060168DFF8E4
:10167000440603F017FDE0780090A37862782178A3
:10168000DFF8240B03F00EFD63A003F00BFD13BD88
:101690000020DFF8281608707047000050DB01209A
:1016A000F8B50021B34E00273770002A00F0B38050
:1016B00080B2022840F086800E20DFF8D87519002D
:1016C000C9B241433944097A012906D1147814F08A
:1016D0007F04117811F0800101E014780021557821
:1016E0002200D2B2002A05D0022A1FD010D3032A2A
:1016F0002AD037E01A00D2B200FB02F03844407A18
:10170000C00702D41220307001E0307830702BE036
:101710001A00D2B200FB02F03844407A800702D4AB
:101720001220307001E0307830701DE01A00D2B223
:1017300000FB02F03844407A400702D41220307097
:1017400001E0307830700FE01A00D2B200FB02F0F6
:101750003844407A000702D41220307001E030781B
:10176000307001E0122030702800C0B2012804D08F
:1017700025D3032817D00BD321E0DFF82C0B0078FA
:10178000C00702D43120307001E0307830701BE0A7
:10179000DFF8140B0078800702D43120307001E0AC
:1017A0003078307010E0DFF8000B007810F0030F95
:1017B00002D13120307001E03078307004E0312007
:1017C000307001E013203070C9B2002904D03078A5
:1017D000002801D1012005E03078002801D1002047
:1017E00000E00120654908703078002813D1644971
:1017F000DFF8A024DBB20E20434302EB0300407865
:1018000040308870CC70022008802900C9B22000C6
:10181000C0B200F00DF8F1BD0D0A0000C10C0008C7
:1018200044E6012042E6012046E6012043E601208D
:1018300001B59DF80000002803D09DF800000128A4
:1018400005D10800C0B2012801D1012010E09DF8A7
:101850000000032803D09DF80000022805D10800ED
:10186000C0B2012801D1002002E0DFF8A80A007808
:10187000DFF8A02A10709DF80000002803D09DF822
:101880000000022805D10800C0B2012801D10120C2
:101890000DE09DF80000032803D09DF8000001280A
:1018A00004D1C9B2012901D1002000E01078DFF88D
:1018B0008C1B0870012269460A2000F029FF01BD37
:1018C00045E6012070B500212A4D00262E70002A21
:1018D0004CD080B2012820D10E20DFF8B863190067
:1018E000C9B241433144097A012906D1147814F070
:1018F0007F04117811F0800101E0147800211A00B2
:10190000D2B200FB02F03044407AC00702D4122069
:10191000287004E02878287001E013202870C9B2EC
:10192000002904D02878002801D1012005E028787A
:10193000002801D1002000E001201049087028781B
:10194000002813D10E49D34ADBB20E20434302EBE9
:101950000300407840308870CC7002200880DFF8A7
:10196000E02A41F250414D4801F044F870BD0000BA
:10197000C4E501203DE60120AB0000203BE601204C
:1019800098E301202DE9F0410021117809025478F3
:101990000F1900240021DFF8AC5A00262E70002A0F
:1019A00078D080B2022862D1002600E0761C300098
:1019B00080B207280FD2DFF890CAB6461FFA8EFE13
:1019C000072000FB0EFE3CF80E00BC461FFA8CFC04
:1019D0006045EBD10121C9B2012945D1DFF8687A10
:1019E000310089B20720414307EB0100C07801288C
:1019F00008D0310089B20720414307EB0100C078CD
:101A000003282ED1DFF8448AA249DBB20E204343DB
:101A100001EB03004078403088F80200107888F825
:101A20000300507888F80400310089B20720414350
:101A300007EB0100827892B218F1050133009BB2E6
:101A40000720434307EB0300007900F07DFEB6B2A8
:101A50000720464307EB06008078C01CA8F800006A
:101A600007E03120287004E03120287001E01320C5
:101A70002870E4B2002C04D02878002801D101207D
:101A800005E02878002801D1002000E00120DFF8DF
:101A90009C1B0870BDE8F081AA00002068E50120C9
:101AA000AC0000203EE601202DE9F84F14001E0096
:101AB00000212178090262788F1800250022012177
:101AC0008DF800105FF00008DFF87899002189F8A0
:101AD0000010002C00F0D780010089B20229C0F26A
:101AE000BC805FF0000B01E01BF1010B594689B28D
:101AF00007290ED2DFF85039DC461FFA8CFC07218B
:101B000001FB0CFC33F80C103B009BB29942EBD16B
:101B10000122D2B2012A40F09C80DFF82CA95A465B
:101B200092B207214A430AEB02014979DFF8002B00
:101B30001278914209D05A4692B207214A430AEBE1
:101B400002014979022940F080805A4692B2072169
:101B50004A430AEB0201C978022908D05A4692B2D8
:101B600007214A430AEB0201C978032969D15A4681
:101B700092B207214A430AEB02018978891C80B29C
:101B800081425AD1012269465B469BB207204343FA
:101B90000AEB0300807900F0D7FD9DF8000050FAB1
:101BA0000BF0C00745D5594689B2072041430AEBDF
:101BB0000100827892B2A11C5B469BB2072043438E
:101BC0000AEB0300007900F0A3FD5FFA88F8B8F192
:101BD000000F11D1DFF874182E4AF6B20E204643DA
:101BE00002EB06004078403088702078C87060783A
:101BF00008710320088002E0102089F800004FF6E9
:101C0000FF70BFB287422BD19DF80000012111FA6D
:101C10000BF188438DF80000012269461FFA8BFB07
:101C2000072000FB0BFB0AEB0B00807900F070FD36
:101C300016E0362089F8000012E0132089F8000031
:101C40000EE0312089F800000AE0332089F8000016
:101C500006E0312089F8000002E0132089F8000036
:101C6000EDB2002D05D099F80000002801D1012027
:101C700006E099F80000002801D1002000E00120D2
:101C8000DFF8A8190870BDE8F18F0000AE00002051
:101C9000AD00002010AE000874B20008A4E50120D9
:101CA000A8E501203FE6012074E50120ECB2000820
:101CB0001CE60120B4B10008A0B000083EE60120F7
:101CC0002DE9FE4F140000210025002100220121F2
:101CD000DFF8706700213170002C00F03E820100B7
:101CE000080080B20328C0F21F8260780002A57845
:101CF00010EB05095FF00E0EDFF838891800C0B24E
:101D00000EFB00F04044007A012807D194F800C08F
:101D10001CF07F0C257815F0800502E094F800C0D7
:101D20000025002700E07F1C380080B204280FD275
:101D3000DFF804A9BB461FFA8BFB0D2000FB0BFB51
:101D40003AF80B00CA461FFA8AFA5045EBD1012235
:101D5000DFF8E8080078012805D0C0F08280032869
:101D600055D02AD37DE05FF00D09DFF8CCA838000C
:101D700080B209FB00F05044C078002802D17F20D7
:101D8000307019E0380080B209FB00F05044C07890
:101D9000DFF89CB89BF800B058450BD0380080B2F3
:101DA00009FB00F90AEB0900C078022802D03320B1
:101DB000307001E03078307053E05FF00D09DFF8EB
:101DC00078A8380080B209FB00F050440079002860
:101DD00002D17F20307019E0380080B209FB00F09A
:101DE00050440079DFF848B89BF800B058450BD054
:101DF000380080B209FB00F90AEB090000790228DB
:101E000002D03320307001E03078307029E05FF08C
:101E10000D09DFF824A8380080B209FB00F0504417
:101E20004079002802D17F20307019E0380080B25C
:101E300009FB00F050444079DFF8F4B79BF800B09C
:101E400058450BD0380080B209FB00F90AEB0900B5
:101E50004079022802D03320307001E030783070B1
:101E6000FFE76046C0B2012804D03CD3032827D046
:101E700013D338E0DFF8C097BA461FFA8AFA0D206C
:101E800000FB0AFA09EB0A008079C00702D412208D
:101E9000307001E03078307027E0DFF89C97BA4668
:101EA0001FFA8AFA0D2000FB0AFA09EB0A00807972
:101EB000800702D41220307001E03078307014E0D6
:101EC000DFF87497BA461FFA8AFA0D2000FB0AFA67
:101ED00009EB0A008079400702D41220307001E03B
:101EE0003078307001E0122030701000C0B200284D
:101EF00002D13120307001E0307830703078002825
:101F000040F01481D2B2012A40F010816046C0B284
:101F1000012807D0C0F00781032800F0E080C0F05E
:101F2000DD8000E10D20DFF81027B9461FFA89F99E
:101F300000FB09F9914499F8029019F1030989B25B
:101F4000894511D1DFF80415DBB20EFB03F34344DE
:101F50005B7840338B7081F803C063780B71A37892
:101F60004B7104230B8001E013213170390089B2D9
:101F700041431144FF23CB72390089B200FB01F0C9
:101F8000104400210173DFF8B886DFF8B896DFF857
:101F9000B8A69AF8001099F800000143DFF8AC06E3
:101FA0000078014398F800000143C9B2002940F0CD
:101FB0009280DFF89CB69BF80000002840F08B80F0
:101FC00002F066FABFB2002F05D0022F34D006D33C
:101FD000032F44D047E0012089F8000043E0DFF8F8
:101FE0007416E0782279120452EA0062607952EAAB
:101FF0000022A07902430A60DFF85C26E079237AA8
:102000001B0453EA0063607A53EA0023A07A034377
:1020100013600868DFF8443698420AD309681068EC
:102020004118DFF83C06814203D2012088F8000005
:1020300001E03120307016E003F054F8E0782179A7
:10204000090451EA0061607951EA0021A079014355
:10205000DFF81006016001208AF8000003E001208B
:102060008BF80000FFE7DFF80006019002200090E7
:1020700000234FF40072DFF8F415DFF8F40502F0E6
:10208000A3FA012812D14FF4FB63DFF8E825DFF84B
:10209000E8050168DFF8E40503F004F8DFF8E0057F
:1020A00003F000F89AA002F0FDFF11E040F2DC73AB
:1020B000DFF8C025DFF8C0050168DFF8C00502F0D1
:1020C000F1FFDFF8C00502F0EDFF91A002F0EAFF9A
:1020D00002F0F8F901E02120307027E026E00D2120
:1020E000DFF85425380080B248431044007B0028B4
:1020F00016D0D648DBB20EFB03F343445B78403383
:10210000837080F803C063780371A3784371BFB212
:102110004F4302EB0701C97A81710521018001E07B
:102120002120307002E001E013203070EDB2002D6C
:1021300007D03078002804D10120DFF8F0140870AF
:102140000BE03078002804D10020DFF8E01408709C
:1021500003E00120DFF8D4140870BDE8F78FDFF842
:10216000D8040021C172012101730220DFF8D414C8
:102170000870704788000020FCB2000810B50220EB
:10218000DFF8BC140870DFF8B044DFF8CC04016855
:10219000DFF8C004006802F0D9FF207601206076E5
:1021A00010BD0000ACE50120BCB0000810B4002256
:1021B0000200002833D0080080B2042390FBF3F41F
:1021C00003FB140000282AD100201FE003009BB26B
:1021D00052F823300400A4B252F82440240A14F424
:1021E0007F4454EA136403009BB252F823301B026D
:1021F00013F47F031C4303009BB252F8233054EACC
:10220000036403009BB242F82340401C0B009BB2C6
:10221000042493FBF4F30400A4B29C42D6DB10BC6C
:10222000704738B5E4B0002468464FF4C87102F036
:10223000A3FF00205FF0FF3020E04FF4C87506E0F8
:10224000086814F5C8729042F7D20D682D1B2A0059
:1022500092B292086946DFF830040068201802F054
:1022600071FF290089B26846FFF7A0FF290089B2F3
:102270008908684602F04AFF14FA85F4DFF80C1466
:102280000A689442DCD3DFF8DC1309684840DFF8C1
:10229000A81381F82500012081F826000220DFF82C
:1022A000A813087065B030BDCE5000081CB50020E2
:1022B0008DF80000002001A800210160042201A97E
:1022C0000D2000F041FA042201A90C2000F020FAB0
:1022D0005FF48032DFF8B813DFF8B40302F029FFAF
:1022E000040000208DF80000012269460B2000F058
:1022F0000FFA02F06DFEDFF8400380F83240012152
:1023000080F833100220DFF84013087013BD00007E
:102310000D0A0000A8000020F8B51E000024694640
:1023200000230B60474D00212970002A7DD0010059
:1023300089B2042967DB1178C9B20909C9B2002939
:1023400003D0117811F00F0F5AD1517801F0FF012D
:10235000442955D180B20A284FD1CB499078D378FF
:102360001B0413EB0063107913EB0023507918184A
:102370000860C6489379D7793F0417EB0367137A4F
:1023800017EB0327527ABA1802600A68B34B9A42D5
:1023900030D30A6800688218B14882422AD208689D
:1023A000000E8DF8000068460A68120C42700A6838
:1023B000120A82700968C170042269460C2000F07C
:1023C000A7F90020B34908700120B34908701F49DC
:1023D000984AF6B20E20464302EB060040784030A1
:1023E00088702020C87004200871402048710420A3
:1023F00008800AE07020287007E01320287004E0AD
:102400003120287001E013202870E4B2002C04D0A1
:102410002878002801D1012005E02878002801D182
:10242000002000E0012081490870F1BD80B55FF413
:1024300080328A49964802F07CFE01BDA900002046
:10244000291000083DE6012014AF000898E30120A0
:102450002DE9F047070014009846002500208F4E14
:1024600000203070002C00F0A580380080B20228D7
:10247000C0F28E80380080B2801E40F20141884256
:1024800080F28680380080B2801E042190FBF1F239
:1024900001FB120000287BD17F480078012874D10D
:1024A000DFF8F091207899F80010491CC9B28842F1
:1024B00051D1207889F80000DFF8E4A17348006862
:1024C000DAF8001011FA87F1891E88423BD3B91E51
:1024D00089B2601C00F0E8F8390089B2214411F893
:1024E000011CC0B2884226D13A0092B2921E9208D4
:1024F000611C65480068DAF80030181802F019FE0F
:10250000002818D167494B4A5FFA88F80E2000FB73
:1025100008F802EB080040784030887099F8000015
:10252000C87002200880DAF80000BFB2BF1E3F1852
:10253000CAF800702EE099F80000401E89F80000EB
:102540007220307026E099F80000401E89F80000E3
:10255000712030701EE0207899F80010884211D167
:102560005049344A5FFA88F80E2000FB08F802EB65
:10257000080040784030887099F80000C870022048
:10258000088007E07320307004E02420307001E000
:1025900013203070EDB2002D04D03078002801D126
:1025A000012005E03078002801D1002000E0012062
:1025B0001E490870BDE8F08730B40021374C002573
:1025C0002570002A30D080B200281BD13248027812
:1025D000012A14D1002202700020314A106000202C
:1025E0002C4A10702F4A134DDBB20E20434305EBEB
:1025F00003004078403090700120108004E02420D7
:10260000207001E013202070C9B2002904D0207886
:10261000002801D1012005E02078002801D1002008
:1026200000E001200149087030BC70473BE6012002
:10263000AA00002010AE000854000020AB000020CB
:1026400043E6012042E6012044E6012046E601205F
:1026500045E60120B0E50120B4E5012000000208B4
:10266000010006088C000020C4E50120D4B3000856
:10267000450D0008CCB100081CE6012084B000081C
:10268000D8B00008F4B00008B8E50120BCE501208E
:1026900000000C0840E6012041E601203DE6012053
:1026A000C0E5012098E3012030B4020000200020A2
:1026B000002A0DD0002403E013785840521C641CFB
:1026C00023000D009BB2ADB2AB42F5D3C0B200E027
:1026D000FF2030BC704730B4002513E050F8042BC5
:1026E000D30744BFA9F101039A18091F042942F82E
:1026F000045BFAD213468C0744BF15809B1CC907A4
:1027000048BF1D7050F8041B0029E7D130BC70474A
:1027100070B5002306231A4C0500EDB25D43655BDE
:102720001600B6B2B5420CD30500EDB20E2D08DA94
:1027300092B2C0B258432044808802F0AEFD01201E
:1027400000E00020C0B270BD70B5002306230C4C21
:102750000500EDB25D43655B1600B6B2B5420CD321
:102760000500EDB20E2D08DA92B2C0B258432044F3
:10277000808802F080FD012000E00020C0B270BD22
:102780000000002030B40020002098480021018083
:102790000021418000210EE00C00A4B25443044407
:1027A0001D00ADB22C44002525725B1C1C00A4B298
:1027B000082CF1DB491C0A0092B2642A0ED20E22C8
:1027C0000B009BB25343034400245C600B009BB29C
:1027D0005343034400241C740023E7E730BC7047D4
:1027E00030B400220022814B5A88521C6424B2FB70
:1027F000F4F504FB15221C88A24201D1012033E02C
:10280000002801D103202FE000240DE05D880E2276
:10281000554303EB05022500ADB22A442500ADB2B5
:102820000544ED7A1572641C2200857A92B2ADB22D
:10283000AA42EBD30E225C8854431C4405686560B1
:102840005C8854431C44807A2074588802FB00F250
:1028500003EB020041745888401C6421B0FBF1F284
:1028600001FB120058800020C0B230BC704710B588
:1028700000215E4C21886288914201D1022015E03E
:10288000002801D1032011E022880E214A4304EBE5
:102890000201091D0E2202F013FD2088401C642154
:1028A000B0FBF1F201FB120020800020C0B210BD8D
:1028B0004E4841880288914203D341880088081A13
:1028C00004E001884088081AD0F1640080B27047A3
:1028D00010B400210021464A5188491C0523B1FB50
:1028E000F3F403FB14111388994201D1012047E04E
:1028F000002801D1032043E000230EE0548840F279
:1029000046414C4302EB04011C00A4B221441C00CC
:10291000A4B2044464784C715B1C1900B0F84144C3
:1029200089B2A142EAD340F2464153884B43134453
:1029300004781C7153884B431344B0F84144A3F806
:10294000454453884B43134490F8434483F8474429
:1029500053884B43134490F8444483F848445388C5
:1029600001FB03F1114490F8450481F849045088B3
:10297000401C0521B0FBF1F301FB13005080002047
:10298000C0B210BC704710B50021194C2188628874
:10299000914201D1022017E0002801D1032013E069
:1029A000228840F246414A4304EB0201091D40F2ED
:1029B000464202F085FC2088401C0521B0FBF1F264
:1029C00001FB120020800020C0B210BD08484188E1
:1029D0000288914203D341880088081A04E00188E4
:1029E0004088081AD0F1050080B27047D4D5012084
:1029F000B0A0012070B504000D001600002C0AD014
:102A00003000002807D002F020FB45192560012086
:102A10002071C4F8056070BD002801D0002101714B
:102A2000704710B50400002C1ED002F00EFB010010
:102A30002079012816D12068002803D100202071B8
:102A4000012012E02068081A052803D32068411AE3
:102A5000052905D20020206000202071012004E01B
:102A6000002002E0002000E0002010BD10B5264C40
:102A70002000FFF7D6FF002808D02000FFF7CCFF8A
:102A8000601D0168002901D0016888471F4C2000A3
:102A9000FFF7C7FF002808D02000FFF7BDFF601D2B
:102AA0000168002901D001688847194C2000FFF710
:102AB000B8FF002808D02000FFF7AEFF601D0168B6
:102AC000002901D001688847124C2000FFF7A9FFB8
:102AD000002808D02000FFF79FFF601D0168002933
:102AE00001D0016888470C4C2000FFF79AFF0028AE
:102AF00008D02000FFF790FF601D0168002901D079
:102B00000168884710BD000068E5012074E50120D8
:102B100050E501205CE5012080E5012038B5DFF8B3
:102B2000D4470120207040F21170C4F8020040F236
:102B3000DF70C4F806000120607040F24E410022B0
:102B400041F6CC1004EB0005280002F00DFC41F624
:102B5000C21100220A34200002F006FC0120DFF836
:102B60009817087031BD2DE9FF4106000C000020C8
:102B700007200027002C00F01082684621000D225B
:102B800002F09EFB206840F2DF71884204D020688A
:102B900040F21171884207D1DFF8602741F25041BD
:102BA000DFF85C07FFF726FFDFF848576878012851
:102BB00003D12878F6B2864200D0EEE1206840F2D8
:102BC0001171401A18D0C01F24D0303876D0203868
:102BD0003CD0401E56D0763840F08C80002640F223
:102BE000197701213200D2B240F24B40424305EB4B
:102BF000020080F854147EE0012640F2197701218A
:102C00003200D2B240F24B40424305EB020080F862
:102C1000541470E002264FF4E26741F6CC10285CB1
:102C2000042812D1216841F6CD102A5840F2F770DD
:102C30000140914209D101213200D2B240F24B4011
:102C4000424305EB020080F8541454E003264FF48D
:102C5000EC6741F6CC10285C042812D1216841F6BB
:102C6000CD102A5840F2F7700140914209D101215C
:102C70003200D2B240F24B40424305EB020080F8F2
:102C8000541438E0042640F2617741F6CC10285CF9
:102C9000042812D1216841F6CD102A5840F2F7706D
:102CA0000140914209D101213200D2B240F24B40A1
:102CB000424305EB020080F854141CE005264FF453
:102CC000E86741F6CC10285C042812D1216841F64F
:102CD000CD102A5840F2F7700140914209D10121EC
:102CE0003200D2B240F24B40424305EB020080F882
:102CF000541400E007263000C0B2072800F04D81D0
:102D00009DF80500082808DA9DF806007F2804D100
:102D10009DF80800782800F040819DF805000828FB
:102D200004DA9DF806003E2800F037819DF8050082
:102D3000C0B20009002807D0022800F097802FD3E6
:102D4000032800F00E8128E140F24B443000C0B26D
:102D5000604328440099C0F80A103000C0B26043B4
:102D60002844022181743000C0B2604328449DF899
:102D7000051011F00F01C18107220DF1060130008D
:102D8000C0B26043284410F11407380002F098FAEA
:102D9000F6B2664305EB06000A3000F000F9FCE0ED
:102DA00040F24B443000C0B2604328440099C0F860
:102DB0000A103000C0B26043284401218174300001
:102DC000C0B2604305EB00019DF80520120212F429
:102DD00070629DF806000243CA8106220DF10701C8
:102DE0003000C0B26043284410F11408404602F09D
:102DF00067FA3000C0B260432844062101823000E7
:102E0000C0B2604328440021C174F6B2664305EBAA
:102E1000060090F85404012840F0BF80002006E02E
:102E200000216A4603009BB21A445171401C010004
:102E300089B20829F4DB009730208DF805000020C6
:102E40008DF8060005208DF8070008208DF8040095
:102E5000002400E0641C6946287802F060FB00282A
:102E600003D0200080B20A28F4D396E040F24B4011
:102E70003100C9B241432944897C012940F08D8049
:102E80003100C9B2414329443200D2B242432A44FC
:102E9000D27C521CCA749DF8051011F00F0132004B
:102EA000D2B242432A44D27C12F00F02914206D0A1
:102EB000F6B2464305EB06000321817450E0012180
:102EC00027E03200D2B242432A443300DBB243430C
:102ED0002B441B8A1A446B460C00A4B223445B7932
:102EE00013753200D2B242432A443300DBB243436B
:102EF0002B441B8A5B1C13823200D2B242432A4409
:102F0000128A3300DBB243432B44DB899A4213D04D
:102F1000491C0A0092B2082A14DA3200D2B24243A3
:102F20002A44128AB2F5886FCBD33100C9B241432B
:102F3000294403228A7405E03100C9B2414329447F
:102F400002228A743100C9B241432944897C012993
:102F500006D0F6B2464305EB06000A3000F01FF833
:102F60001BE041F6CD1168580099884201D101203B
:102F700000E00020022041F6CC1168549DF80600C4
:102F800041F6166168549DF8070041F618616854CF
:102F9000012041F615616854FFE7BDE8FF8180B567
:102FA0000021016840F21172914204D0016840F2A0
:102FB000DF73994213D1017A022910D18188002947
:102FC0000DD00168914201D1012200E000220021D0
:102FD00000910123D2B281880A30FDF7CCFB01BDFC
:102FE0002DE9FF470020002006E000216A4603008B
:102FF0009BB21A445171401C010089B20829F4DBCC
:10300000BC4C6078012840F04F8141F6CC15605DE2
:10301000012803D0605D022840F04681605D0128F0
:1030200040F0E18041F613670020E053012041F6B3
:103030001561605441F6CD1004EB000630684FF482
:10304000E261401A1BD0093810D0273834D020381C
:103050001ED0401E25D07E3839D141F6C211002243
:1030600014F10A08404602F07FF930E040F24B418B
:10307000002204F25548404602F076F927E040F27B
:103080004B41002214F50A68404602F06DF91EE03B
:1030900040F24B41002204F6EB48404602F064F94E
:1030A00015E040F24B41002241F2361004EB0008DB
:1030B000404602F059F90AE040F24B41002241F249
:1030C000815004EB0008404602F04EF9FFE741F65C
:1030D000D110215A082935DB08218DF80410215A16
:1030E000091211F00F0110318DF80510205A8DF8DA
:1030F0000600062241F6D31004EB00010DF107088B
:10310000404602F0DDF80620E05330680090694642
:10311000207802F004FA00280DD041F61960215CF5
:10312000491C2154215C0429C0F2B280042161555C
:1031300000212154ACE0002041F6196160540320C5
:103140006055A5E008218DF80410205C10F00F00F8
:103150008DF805009DF8052041F6D31804EB080111
:103160000DF10609484602F0ABF89DF80500E05362
:10317000306800906946207802F0D1F9002816D016
:1031800041F61960215C491C2154215C0429C0F2DC
:103190007F8004216155002121543068012341F6CC
:1031A000D411625C14F80810FDF71BFB70E00020DE
:1031B00041F6196160543068002341F6D411625C15
:1031C00014F80810FDF70DFB0420605560E0E05B8B
:1031D000C01DE05314F80800401C04F8080000204B
:1031E00041F61961605441F6D11641F61367E05B70
:1031F000A15B88423AD208208DF8040041F6156898
:1032000014F8080010F00F0020308DF80500072298
:1032100041F6D319E05B204400EB09010DF1060AE9
:10322000504602F04DF841F6CD1004EB000ADAF8F2
:10323000000000906946207802F071F90028C6D09D
:1032400041F61960215C491C2154215C04290DDBE5
:103250000421615500212154DAF80000012341F6D0
:10326000D411625C14F80910FDF7BBFAE05BA15BB6
:1032700088420DD341F6CD116058002341F6D41198
:10328000625C41F6D311615CFDF7ABFA0420605536
:1032900041F6CD11605840F21971884204D1605D49
:1032A000042801D100206055BDE8FF8770B50029D2
:1032B0001DD041F6CC140F4D2B5D002B17D1130000
:1032C0009BB240F24146B34211D241F6CD13E850D1
:1032D00041F6D1102A5292B241F6D31005EB000606
:1032E000300001F0EDFF01202855012000E0002012
:1032F00070BD0000906A0120AF0000202910000876
:1033000068E501202DE9F84315001C000122002684
:10331000002C01D1012642E12A0092B240F20113B1
:103320009A4201DB01263AE14FF4C867DFF85C8B73
:103330003200D2B27A43424492F83E26062A01DB9A
:1033400002262CE14FF485733200D2B27A43424414
:10335000B4465FFA8CFC07FB0CFCC4449CF83CC6EA
:1033600003FB0CFC62445FF0010C82F801C03200E8
:10337000D2B27A434244B4465FFA8CFC07FB0CFCA1
:10338000C4449CF83CC603FB0CFC62445FF0000C98
:1033900082F804C03200D2B27A434244B4465FFAA3
:1033A0008CFC07FB0CFCC4449CF83CC603FB0CFCE7
:1033B00062445FF0020C82F805C03200D2B27A4358
:1033C0004244B4465FFA8CFC07FB0CFCC4449CF8F6
:1033D0003CC603FB0CFC62449071280080B20828B4
:1033E00061DB3000C0B2784340443200D2B27A434D
:1033F000424492F83C265A4310442A1D0281300070
:10340000C0B2784340443200D2B27A43424492F888
:103410003C265A4310440A00120A82723000C0B29D
:10342000784340443200D2B27A43424492F83C2678
:103430005A431044C1723000C0B278434044310056
:10344000C9B27943414491F83C16594308442900D4
:1034500089B2091211F00F01103101733000C0B2AE
:10346000784340443100C9B27943414491F83C1655
:103470005943084445732A0092B221003000C0B27B
:1034800078434044B4465FFA8CFC07FB0CFCC44410
:103490009CF83CC603FB0CF3184410F10E09484697
:1034A00001F00EFF4FE03000C0B2784340443200DC
:1034B000D2B27A43424492F83C265A431044EA1C62
:1034C00002813000C0B2784340443200D2B27A4325
:1034D000424492F83C265A4310440A00120A82726F
:1034E0003000C0B2784340443200D2B27A43424402
:1034F00092F83C265A431044C1723000C0B278435F
:1035000040443100C9B27943414491F83C165943D3
:10351000084415F00F0101732A0092B22100300017
:10352000C0B278434044B4465FFA8CFC07FB0CFC05
:10353000C4449CF83CC603FB0CF3184410F10D097D
:10354000484601F0BDFE3000C0B27843404431002F
:10355000C9B27943414491F83C16491C80F83C16A5
:103560003000C0B2784340443100C9B2794341448D
:1035700091F83E16491C80F83E163000C0B27843E0
:10358000404490F83C060621F6B27E4308EB060262
:1035900090FBF1F301FB130082F83C0600261E218C
:1035A0000022DFF8F078B846404601F0DDFE5FF01B
:1035B00000080BE014F80820DFF8C01B032000FB14
:1035C00008F0384401F0FEFF18F10108B8F10A0FC5
:1035D00003DA280080B28045ECDB3000BDE8F283DE
:1035E0002DE9F84F002400250500EDB2AD1E072D92
:1035F00007D20092009A002A03D0002B01D00029A4
:1036000001D102249DE0C0B2801E022290FBF2FA9A
:1036100041F69A1941F69C18DFF8D87C5046C0B2A2
:1036200008FB00F0384410F80900002801D10124FB
:1036300087E040F2444641F69915009800685246EA
:10364000D2B208FB02F23A44D4465FFA8CFC08FB83
:103650000CFCBC441CF805C006FB0CFC6244528800
:10366000904201D203246CE05046C0B208FB00F047
:1036700038445246D2B208FB02F23A44525D7243D9
:10368000805C08705046C0B208FB00F038445146D8
:10369000C9B208FB01F13944495D714308444288CD
:1036A0005046C0B208FB00F038445146C9B208FB8E
:1036B00001F13944495D71430844011D9B46584658
:1036C00001F0FEFD5046C0B208FB00F03844514600
:1036D000C9B208FB01F13944495D06FB01F63044EB
:1036E0004088009908605046C0B208FB00F038449A
:1036F0005146C9B208FB01F1394411F80910491EBD
:1037000000F809105046C0B208FB00F0384451469A
:10371000C9B208FB01F13944495D491C4155504685
:10372000C0B208FB00F03844405D06215FFA8AFA17
:1037300008FB0AFA07EB0A0290FBF1F301FB130006
:1037400050552000C0B2BDE8F28F2DE9F84F0500BA
:10375000002600240027002000904FF4086841460E
:103760000022DFF8949BCA46504601F0FDFD414619
:103770000022DFF888ABD346584601F0F5FD002063
:1037800009F80400641C287809F80400641C6879AE
:1037900009F80400641CA87909F80400641C28894D
:1037A0004FF4807190FBF1F009F80400641C288943
:1037B00009F80400641C2A8915F10A0109EB040BBD
:1037C000584601F07DFD2889211807E019F80120ED
:1037D00019F80700821809F801207F1C8F42F5D3E1
:1037E000CDF800806B465246484601F00BFF009929
:1037F000504602F04DF83000BDE8F28F2DE9F0415F
:103800009AB006000024002501A8642101F0B4FC50
:10381000002000904FF408610022DFF8DC7AB846FF
:10382000404601F0A1FD642100220DF1040840464C
:1038300001F09AFD012078556D1C7E556D1C6420A9
:1038400000906B4601AA2900380001F0DBFE0099C8
:1038500001A802F01DF820001AB0BDE8F0810000B8
:103860002DE9F8430025002000200020002100243D
:1038700000E0641C002C40F0B7804FF4C866DFF80D
:103880000C7606FB04F0384490F83E06002800F061
:10389000A680002033E006FB04F23A4409FB08F35B
:1038A0001A445278921E032A28D206FB04F23A44A4
:1038B00009FB08F31A449278642A1FDB06FB04F222
:1038C0003A4409FB08F31A4406FB04F33B4409FBA2
:1038D00008FC63445B785B1C537006FB04F23A44BB
:1038E00009FB08F31A440023937006FB04F23A44E0
:1038F00009FB08F31A445278052A45DB401C06FBF5
:1039000004F23A4492F83E26904268D206FB04F252
:103910003A4492F83D2650FA82F80622B8FBF2F3B8
:1039200002FB13884FF4857906FB04F23A4409FB45
:1039300008F31A445278012AADD1DFF8C80901789A
:10394000491C017006FB04F1394409FB08F20078B8
:10395000885406FB04F0384409FB08F108440021B0
:10396000817006FB04F0384409FB08F10844022189
:10397000417006FB04F607EB060009FB08F840441B
:10398000FFF7E3FE01212AE006FB04F0384409FBBF
:1039900008F10844FFF7D9FE40F26F13DFF86829F9
:1039A000DFF8DC070168DFF8DC0701F07BFB06FBD2
:1039B00004F0384409FB08F108444278921E06FBE3
:1039C00004F607EB060009FB08F810F80810DFF80A
:1039D0003C0901F067FB83A001F064FB01210800B2
:1039E000C0B201287FF445AF2800BDE8F283F0B4EF
:1039F000002200200020002000202EE003FB00F524
:103A0000254495F83D5651FA85F50626B5FBF6F79F
:103A100006FB17554FF4857603FB00F7274406FB9A
:103A200005FC67447F78BF1E032F0DD203FB00F710
:103A3000274406FB05FC674403FB00FCA4447543D4
:103A40006544AD786D1CBD70491C03FB00F5254431
:103A500095F83E56A942D1D3401C00280CD14FF412
:103A6000C863DFF8AC4803FB00F1214491F83E162F
:103A70000029F1D00021E8E71000F0BC7047F0B554
:103A80000022002345F20854DFF888582B595B18B0
:103A9000B3F5AA4F01D3022018E0002313E02E59FA
:103AA000761C2E5145F20456C75C55F806C005F841
:103AB0000C70AF597F1C4FF4AA4CB7FBFCFE0CFBFB
:103AC0001E77AF515B1C8B42E9D31000F0BD2DE98E
:103AD000F0410223002400220022002804D0002903
:103AE00002D00A68062A0DD2012377E077597F1E9B
:103AF0007751B5586D1CB550B558B5FBF2F702FBC0
:103B00001755B55045F20855DFF808687259002A74
:103B10000AD04FF4AA42B758F75D552FE6D10124D9
:103B20000122DFF8F4773A70DFF8EC8798F800208C
:103B3000002A01D1012C51D14FF4AA4756F807C0F1
:103B4000725907E0521E1CF1010CE646BEFBF7FC61
:103B500007FB1CEC002A09D016F80CE0BEF10D0F93
:103B6000F0D102245FF0000E88F800E0022C35D17D
:103B70000C6856F807E0BCEB0E0E744514D256F8EC
:103B800007E0745914EB0E0EBEEB020245F201542D
:103B9000A24209D30C681CF5AA4CF259BCEB020CEA
:103BA000644501D2032319E000247259002A14D07D
:103BB000F259B25C02557259521E7251F259521C9E
:103BC000F251F259B2FBF7FC07FB1C22F251220022
:103BD000541C825C0D2AE8D100230C601800BDE85B
:103BE000F08100000D0A00002DE9F84F8246002503
:103BF00000200020002000200020002000200026BF
:103C00009AF801709AF802B09AF8000001285DD184
:103C1000002451E0401C4FF4C8619C4A01FB04F3AE
:103C2000134493F83E36984245D201FB04F3134403
:103C300093F83D3650FA83F35FF0060CB3FBFCFEBD
:103C40000CFB1E334FF4857C01FB04FE96440CFBF9
:103C500003F8C6449EF801E0BEF1020EBEF1030F68
:103C6000D8D2BE4601FB04F890440CFB03F918F8C7
:103C700009805FFA8EFEC645CCD101FB04F102EB50
:103C800001000CFB03F3184406214170012640F2A9
:103C90003723DFF88826DFF8E8040168DFF8E4045A
:103CA00001F000FA3900C9B2DFF8740601F0FAF940
:103CB00077A001F0F7F9641C3000C0B2002840F092
:103CC0009080002C40F08D800020A4E73800C0B226
:103CD000FFF794FD9AF803109AF804204FF48073CC
:103CE0009AF8050003FB02020800C0B2022807D0C0
:103CF000042805D0062803D0082801D00A2870D14E
:103D0000C9B2891E022091FBF0F441F69A1641F6E1
:103D10009C17DFF8E0852000C0B278434044805D06
:103D200007285EDA40F2444041F698192100C9B2F2
:103D3000794341442300DBB27B43434413F8093009
:103D4000434319444A802100C9B2794341442300C6
:103D5000DBB27B43434413F80930434301F803B01B
:103D600092B21AF106012300DBB27B434344A4461E
:103D70005FFA8CFC07FB0CFCC4441CF809C000FB78
:103D80000CF0184410F1040A504601F099FA200092
:103D9000C0B2784340442100C9B27943414411F88C
:103DA0000910491C00F809102000C0B278434044B3
:103DB00010F8090006212200D2B27A43424490FB57
:103DC000F1F301FB130002F809002000C0B27843B0
:103DD0004044E4B27C4308EB0401895D491C8155F1
:103DE000FFE72800BDE8F28F2DE9FC410024002008
:103DF0000090002001904FF4086529000022DFF8B0
:103E0000F8643700380001F0AFFA29000022DFF82B
:103E1000EC74B846404601F0A7FA009569463000B8
:103E200001F004FD002813D1019501AB3A0000997F
:103E3000300001F062FC01993800FFF720FE009588
:103E400029000022B046404601F08EFA009514E0A9
:103E5000012019E0009840F20141884201D30A2074
:103E60000190019501AB3A000099300001F065FC2A
:103E700001993800FFF7B8FE009569463000FFF75A
:103E800026FE0028E6D02000BDE8F68194CF012070
:103E90000D0A0000A4E401202DE9F84F00200020C5
:103EA000002000205FF0000900208DF800000020B5
:103EB000002500E06D1C012D80F2B88000265CE03A
:103EC000012307FB05F040440BFB04F10844827B0F
:103ED00007FB05F708EB07000BFB04F42044417BCC
:103EE0005046FCF77EFC43E0002307FB05F040440E
:103EF0000BFB04F10844827B07FB05F040440BFBFD
:103F000004F10844417B5046FCF76BFC6846415D78
:103F1000491C415507FB05F040440BFB04F10844E4
:103F20004078052828D107FB05F040440BFB04F13D
:103F30000844407902281BD107FB05F040440BFBE5
:103F400004F10844007B1028BADB012307FB05F0CD
:103F500040440BFB04F10844C27B07FB05F708EB68
:103F600007000BFB04F42044817B5046FCF739FC2E
:103F70006846415D491C4155761C4FF4C867DFF81F
:103F8000908307FB05F0404490F83E06864291DAA4
:103F900007FB05F0404490F83D0656FA80F40620F1
:103FA00094FBF0F100FB11444FF4857B07FB05F017
:103FB00040440BFB04F10844807A000207FB05F142
:103FC00041440BFB04F21144C97A50FA81FA07FB11
:103FD00005F040440BFB04F108444078062899D1D1
:103FE00007FB05F040440BFB04F10844407902282C
:103FF0008CD107FB05F040440BFB04F10844007B27
:104000001028FFF671AF002307FB05F040440BFBBF
:1040100004F10844C27B07FB05F040440BFB04F1AC
:104020000844817B5046FCF7DCFB6FE7002428E066
:1040300005FB04F0304490F83E06C01B401E05FB13
:1040400004F1314481F83E0605FB04F0304490F859
:104050003D067F1C3F1805FB04F0304480F83D7698
:1040600005FB04F0304490F83D06062190FBF1F288
:1040700001FB120005FB04F506EB050181F83D0686
:10408000641C012C76DA4FF4C865A14E05FB04F0E0
:10409000304490F83E06002803D06846005D0028B2
:1040A00000D1EDE705FB04F0304490F83E767F1E2A
:1040B0003CE0521E002A1DD405FB04F0304490F869
:1040C0003D0652FA80F1062091FBF0F900FB191928
:1040D00005FB04F0304408FB09F10844407800284F
:1040E000E7D005FB04F0304408FB09F108444078B0
:1040F0000528DEDA002A9BD4424605FB04F0304452
:1041000008FB09F1014405FB04F0304408FB03F30C
:1041100000EB030A504601F0D3F805FB04F03044ED
:1041200008FB09F84044002141707F1E002FA7D4EE
:1041300005FB04F0304490F83D0657FA80F3062062
:1041400093FBF0F100FB11334FF4857805FB04F08D
:10415000304408FB03F108444078062808D005FBEA
:1041600004F0304408FB03F1084440780528DCD112
:104170003A009FE70020BDE8F28F00001CB4000861
:104180001CE6012064B10008F8B5ADF5805D84B08F
:104190000024002000200026022500E0AD1C082D90
:1041A00080F2A2804FF48050029015E017F4E06096
:1041B000B0F5E06F10D117F4E160B0F5E16F0BD00E
:1041C0009DF80C3001A8304410F109020299891BB6
:1041D00089B2380001F062FB0DF10D0302AA03A9B8
:1041E0002800C0B2FFF7FCF90028D7D12800022828
:1041F00008D0042864D0062863D0082862D00A2892
:1042000061D061E001A83044417A4FF480704143AD
:10421000761C01A83044407A51FA80F7761C01A838
:104220003044417A761C102909D310394FF480703C
:10423000414301A83044407A51FA80F0761C40F2A4
:104240005233384A38480168384800F02BFF01A83B
:104250003044417A364800F025FF29A000F022FFC3
:1042600040F2117087420DD19DF80C00009002239E
:1042700001220299891B89B201A830440930FCF758
:104280007AFAA9E740F2DF7087428FD19DF80C00DF
:104290000090022300220299891B89B201A83044B0
:1042A0000930FCF768FA9DF80C3001A8304410F191
:1042B00009020299891B89B2380001F0EFFA8BE7F5
:1042C0008AE789E788E787E74FF46673154A164857
:1042D0000168184800F0E6FE2900174800F0E2FEE9
:1042E00007A000F0DFFE77E720000DF5805D05B048
:1042F000F0BD0000BC1D012014B6012094BE0120B9
:104300000D0A000049E60120A4B3000874AF0008BC
:1043100094CF0120B0C800204AE601203CB3000839
:10432000B0B30008BCB300081CE601205CB2000872
:10433000C4AF000864B1000880B1000810B50020C7
:10434000FFF752FD0400FFF78BFAFFF750FBFFF772
:10435000A3FD200010BD8268521C8260426832B109
:104360000268531C036011704168491E4160704728
:10437000001F5FF080730360001F4908490001605F
:10438000001F0FF21501016014380260001F7FF05A
:1043900002010160203870477248006810F1010F77
:1043A00007D0502080F31188BFF34F8FBFF36F8F7A
:1043B000FEE7502080F31188BFF34F8FBFF36F8F5C
:1043C000FEE7E0B568480168684A914207D150208D
:1043D00080F31188BFF34F8FBFF36F8FFEE7006844
:1043E0006349884207D1502080F31188BFF34F8F73
:1043F000BFF36F8FFEE75F4801780191FF210170E5
:1044000001788DF800109DF8001011F050015A4A03
:1044100011705A4907220A6007E00A68521E0A60B2
:104420009DF8002052008DF800209DF80020120613
:10443000F3D40A68D2F10702042A07D0502080F38F
:104440001188BFF34F8FBFF36F8FFEE70A68120228
:104450000A600A6812F4E0620A6001990170484833
:10446000016851F470010160016851F07041016010
:1044700000F090F800203B49086001F075FB4148CE
:10448000016851F04041016001F05EFB00200EBD6B
:10449000502080F31188BFF34F8FBFF36F8F3149E6
:1044A0000A68521C0A60096801290AD1364909685C
:1044B000090606D080F31188BFF34F8FBFF36F8FCB
:1044C000FEE7704727490868002807D1502080F38D
:1044D0001188BFF34F8FBFF36F8FFEE70868401E50
:1044E00008600868002802D1002080F31188704716
:1044F00080B5502080F31188BFF34F8FBFF36F8FCB
:1045000000F085FA002803D05FF080501E49086053
:10451000002080F3118801BDEFF3058010280FD330
:104520001A490968085C14490978C0B2884207D260
:10453000502080F31188BFF34F8FBFF36F8FFEE7DA
:104540000E4800681249096811F4E061884207D2F8
:10455000502080F31188BFF34F8FBFF36F8FFEE7BA
:10456000704700009000002000ED00E071C20F4194
:1045700070C20F4100E400E048E60120D8E50120C8
:1045800020ED00E034EF00E004ED00E02CB4000882
:104590000CED00E00848002101600021074A11608D
:1045A000074909684FF47A72B1FBF2F1491E054AD6
:1045B000116007210160704710E000E018E000E0A2
:1045C000A400002014E000E02DE9F84384B00600C8
:1045D0000F0091469846484680B2800001F0D2FA1A
:1045E0000500002D0BD0542001F0CCFA0400002C63
:1045F00001D0256304E0280001F04EFB00E0002418
:10460000002C13D00D990C98002203920294019172
:10461000009043461FFA89F94A463900300000F0FD
:104620000AF8200000F068F8012001E05FF0FF3098
:1046300005B0BDE8F0832DE9F84305000C00170034
:1046400098460A9EB900A522D6F83090484600F058
:104650008BFE306B00EB8700071FFF08FF0017F091
:104660000700002807D0502080F31188BFF34F8F38
:10467000BFF36F8FFEE7002C10D0002100E0491C33
:10468000102907D2605C06EB010282F83400605CFE
:104690000028F4D1002086F8430002E0002086F8CC
:1046A0003400DDF82090B9F1050F01D35FF0040963
:1046B000099CC6F82C90C6F844900020B064301DC8
:1046C00001F09FFB16F1180001F09BFB3661D9F158
:1046D0000509C6F8189076620020F064002086F87C
:1046E0005000424629003800FFF742FE3060002C9F
:1046F00000D02660BDE8F18338B50400FFF7C8FE9E
:10470000DFF848150868401C0860DFF84455286841
:10471000002806D12C60086801280DD100F008FBA4
:104720000AE0DFF844050068002805D1E06A29683E
:10473000C96A884200D32C60DFF830050168491C43
:104740000160DFF82C150A680123E06A83401A43F0
:104750000A60211DDFF81C25E36A1420434302EBA5
:10476000030001F051FBFFF7ADFEDFF8FC04006829
:1047700000280DD02868C06AE16A884208D25FF03C
:104780008050DFF8A0160860BFF34F8FBFF36F8F24
:1047900031BD38B50400FFF77BFE002C03D1DFF8F4
:1047A000B0040468FFE7201D01F055FB00280FD17D
:1047B000DFF8C014E26A142042438858002807D169
:1047C000DFF8AC140A680123E06A83409A430A6068
:1047D000A06A002803D014F1180001F03CFBDFF8B8
:1047E0008C040168491C0160DFF864542868844225
:1047F0000AD1211DDFF8300501F006FBDFF82C059A
:104800000168491C016009E0DFF840040168491EA5
:104810000160200000F0D8FA00F0DFFAFFF752FE46
:10482000DFF844040068002818D02868844215D1B5
:10483000DFF850050068002807D0502080F3118869
:10484000BFF34F8FBFF36F8FFEE75FF08050DFF84D
:10485000D4150860BFF34F8FBFF36F8F31BD10B514
:1048600004000020002C14D0DFF818050068002890
:1048700007D0502080F31188BFF34F8FBFF36F8FA5
:10488000FEE700F048F80021200000F03DFB00F0BA
:1048900048F8002808D15FF08050DFF888150860DC
:1048A000BFF34F8FBFF36F8F10BDE0B5DFF8340655
:1048B00001900020009000238222DFF82C160FF2D6
:1048C0004540FFF781FE012801D101F0D7FA012808
:1048D00016D1502080F31188BFF34F8FBFF36F8F35
:1048E0005FF0FF30DFF8041608600120DFF878136E
:1048F00008600020DFF8CC140860FFF762FD07BDF8
:1049000010F1010FFBD1502080F31188BFF34F8FBE
:10491000BFF36F8FFEE7DFF86C040168491C01608C
:10492000704770B500240025DFF85864306800280F
:1049300007D1502080F31188BFF34F8FBFF36F8FE3
:10494000FEE7FFF7A5FD3068401E306030680028A4
:1049500055D1DFF8F8020068002826D14FE0C8687A
:10496000C46814F1180001F076FA201D01F073FA02
:10497000DFF8FC120A680123E06A83401A430A60E8
:10498000211DDFF8F022E36A1420434302EB030009
:1049900001F03AFAE06ADFF8B8120968C96A884299
:1049A00003D30120DFF858150860DFF834150868D4
:1049B0000028D4D1002C01D000F00FFADFF83065C8
:1049C0003468002C0CD000F022F8002803D001201D
:1049D000DFF82C150860641E002CF4D10020306034
:1049E000DFF81C050068002809D001255FF0805021
:1049F000DFF830140860BFF34F8FBFF36F8FFFF7FE
:104A000061FD280070BDDFF8BC0300687047F8B591
:104A10000025DFF870030068002864D1DFF8A403E4
:104A20000468641C0460002C1AD1DFF8C8140868FC
:104A30000068002807D0502080F31188BFF34F8F03
:104A4000BFF36F8FFEE70868DFF8AC2413680B60D4
:104A50001060DFF8A8040168491C016000F0BDF98E
:104A6000DFF88864306884422ED320E0381D01F0DE
:104A7000F2F9B86A002803D017F1180001F0EBF939
:104A80007B490A680123F86A83401A430A60391D8A
:104A9000784AFB6A1420434302EB030001F0B4F9A7
:104AA000F86A6B490968C96A884200D30125DFF8B2
:104AB000441408680068002811D00868C068C768F6
:104AC00078688442D2D23060614800686949C26A1D
:104AD00014204243885802280AD3012508E05FF0D9
:104AE000FF303060F0E7DFF808040168491C01601E
:104AF000DFF80C040068002800D001252800F2BD72
:104B0000DFF880020068002804D00120DFF8F013ED
:104B100008602AE00020DFF8E813086054480068C5
:104B2000B0FA80F1D1F11F011422524B02FB01F0C7
:104B30001858002807D1502080F31188BFF34F8FF9
:104B4000BFF36F8FFEE7514303EB010041684968F3
:104B50004160416810F10802914202D14168496800
:104B600041604068C0683A490860704710B50C0061
:104B7000002807D1502080F31188BFF34F8FBFF377
:104B80006F8FFEE7DFF8F0130968183101F048F97C
:104B90000121200000F0B8F910BD38B50D00140057
:104BA000002807D1502080F31188BFF34F8FBFF347
:104BB0006F8FFEE7DFF8C0130968183101F024F9A0
:104BC000002C01D05FF0FF352100280000F09CF997
:104BD00031BD10B5C068C468002C07D1502080F3E7
:104BE0001188BFF34F8FBFF36F8FFEE714F11800EA
:104BF00001F031F963480068002813D1201D01F04D
:104C00002AF91B490A680123E06A83401A430A60B3
:104C1000211D184AE36A1420434302EB030001F00C
:104C2000F3F805E014F11801DFF8B40201F0ECF834
:104C300007480068C06AE16A884205D20120012164
:104C4000DFF8C022116000E0002010BDF0E5012077
:104C5000E0E50120DFF8A41209680160DFF81C1309
:104C60000968416070470000FCE501200CE6012066
:104C7000F8E5012000E4012038B504000D00002C07
:104C800007D1502080F31188BFF34F8FBFF36F8F90
:104C9000FEE7002D07D1502080F31188BFF34F8F1E
:104CA000BFF36F8FFEE7FFF7F3FB464800686168CC
:104CB000411A2A6812F1010F01D1002418E0DFF82F
:104CC0003C22126823689A4204D06268904201D361
:104CD00001240DE02868814207D22868411A296022
:104CE0002000FFF7B7FF002402E000202860012425
:104CF000FFF7E8FB200032BD0120DFF80812086052
:104D00007047000080B500F03FF8DFF874020068DB
:104D10000228F8D35FF08050DFF8C0110860BFF3BD
:104D20004F8FBFF36F8FEEE700E50120ECE5012028
:104D300038B5002408E0DFF84802142101FB04F133
:104D4000084401F04FF8641C052CF4D3DFF834421A
:104D5000200001F047F8DFF83052280001F042F857
:104D6000DFF87C0101F03EF8DFF8200201F03AF8AC
:104D7000594801F037F8DFF87C010460DFF81002D1
:104D8000056031BD18E6012038B515E0FFF780FB5E
:104D9000DFF8F801C068C468201D01F05CF8DFF896
:104DA000F4010168491E01602868401E2860FFF771
:104DB00089FB200000F008F8DFF8DC5128680028A3
:104DC000E4D131BDF4E5012010B50400206B00F002
:104DD00063FF200000F060FF10BDDFF818110868C5
:104DE0000068002805D15FF0FF30DFF8001108608F
:104DF00006E00868C068C0684068DFF8F010086026
:104E00007047DFF898010068002801D1012007E011
:104E1000DFF88C010068002801D1022000E00020AA
:104E20007047000004ED00E010B5040000210028E8
:104E30004FD0DFF844010068844207D0502080F34F
:104E40001188BFF34F8FBFF36F8FFEE7A06C002870
:104E500007D1502080F31188BFF34F8FBFF36F8FBE
:104E6000FEE7A06C401EA064E06A626C904230D005
:104E7000A06C00282DD1201D00F0EDFF00280FD1DF
:104E8000DFF8FC10E26A142042438858002807D15A
:104E9000DFF810110A680123E06A83409A430A6030
:104EA000606CE062E06AD0F10500A061DFF8F41008
:104EB0000A680123E06A83401A430A60211DDFF873
:104EC000C020E36A1420434302EB030000F09CFF80
:104ED0000121080010BD000014E5012004ED00E0F0
:104EE000ECE4012014E6012004B4000810E60120DF
:104EF00000E60120E4E50120E8E5012008E60120C4
:104F000004E6012004E60120F8B505000C001B486A
:104F10000668194F3868001D00F09DFF002807D172
:104F2000386820490A680123C06A83409A430A60AE
:104F300015F1010F07D1002C05D03868011D1A4862
:104F400000F062FF16E0AD1938684560B54206D240
:104F50003868011D0E48006800F062FF0AE03868FA
:104F6000011D1248006800F05BFF114801688D4286
:104F700000D20560F1BD0000E0E50120F4E501206C
:104F800000E40120C4E40120D8E4012000E5012070
:104F9000E8E50120F0E50120ECE50120FCE5012039
:104FA00018E60120F8E5012014E50120E4E50120E0
:104FB00010E6012080F308887047704702480349D3
:104FC0000160FEE7704700000CED00E00400FA0508
:104FD00080B5012080F31388FFF7F0FF01BD026860
:104FE000531C03601170704738B584B004000D0085
:104FF0000121022001F024FAA4B20294ADF8045079
:105000000020ADF806000020ADF80C001F4C01A9EF
:10501000200001F07BFA01220121200001F0C8FAF2
:105020000121200001F0A7FA1D208DF800000820C2
:105030008DF8010000208DF8020001208DF803009A
:10504000684601F0DCFA05B030BD114800687047D1
:1050500038B50020EFF31184502080F31188BFF39E
:105060004F8FBFF36F8F094D0121280001F0ACFA7B
:10507000012803D106480168491C0160012128006C
:1050800001F0B4FA84F3118831BD0000000400403F
:105090001CE6012080B55FF4E13001F0FBFA01F07D
:1050A0005AFB01BD0EB410B595B0040068465421FA
:1050B00000F062F817AB22005021684601F0FEFBB9
:1050C000684601F03DFB15B010BC5DF810FB010017
:1050D00080B501214FF4805001F096F90120094973
:1050E000086001BD0120074908607047064900BA01
:1050F00090FAA0F00860086890FAA0F05FF0FF3125
:1051000048407047083002400030024070B504004B
:105110000D000020002604E054F82600FFF7E6FF0B
:10512000761C681E8642F7D354F82600FFF7DEFF90
:1051300070BD80B501F01BFC002801D0012000E00B
:10514000002002BD80B501F040FC01BD38B504006F
:105150000D00002001F09BFC002001F087FC2900DD
:10516000200001F042FC0400012001F07FFC01F06E
:105170009CFC2000C0B232BD002201F03DBD80B5D4
:1051800001F054FD00F006F8002801D0012000E0F5
:10519000002002BD80B5FF2000F013F8C0B25528F2
:1051A00001D100200CE05521FF2000F039F8FF204C
:1051B00000F007F8C0B2552801D1002000E001201E
:1051C00002BD10B50400002001F050FD200080B2A7
:1051D0004FF4807190FBF1F04000A030C0B201F0BC
:1051E000D8FD01F079FDA4B24FF4807094FBF0F18A
:1051F00000FB11442000C0B201F0CBFD01F06CFDBA
:1052000001F034FDA12001F0C4FD01F065FD002096
:1052100001F0F1FD040001F044FD2000C0B210BD1A
:1052200038B504000D0001F021FD200080B24FF4DC
:10523000807190FBF1F04000A030C0B201F0A9FDF8
:1052400001F04AFDA4B24FF4807094FBF0F100FB32
:1052500011442000C0B201F09CFD01F03DFD28008A
:10526000C0B201F096FD01F037FD01F01AFD0820F3
:1052700001F05CFE31BD70B504000D00160007E0C2
:10528000200080B2FFF79DFF641C28706D1C761E05
:10529000300080B20028F3D170BD70B504000D005D
:1052A000160006E02978200080B2FFF7B9FF641CE1
:1052B0006D1C3000461E80B20028F3D170BD000086
:1052C00062B38B0708D0521E11F8013B00F8013B76
:1052D00000F024808B07F6D1830740F0208000BFC8
:1052E000103A07D330B4B1E83810103AA0E83810BB
:1052F000F9D230BC530724BFB1E80810A0E8081069
:1053000044BF51F8043B40F8043BD20724BF31F8B6
:10531000022B20F8022B44BF0B7803707047121F3A
:1053200017D35B0009D151F8043B20F8023B1B0C5A
:10533000121F20F8023BF6D20BE051F8043B00F8B4
:10534000013B1B0A20F8023B1B0C121F00F8013B1B
:10535000F3D238BF121D521E24BF11F8013B00F8D2
:10536000013BF8D87047000062F30F2262F31F423E
:10537000401810F0030308D0C91A1FD3DB0748BF39
:1053800000F8012D28BF20F8022D130030B4144678
:105390001546103928BF20E93C00FAD8490728BF34
:1053A00020E90C0048BF40F8042D890028BF20F8F0
:1053B000022D48BF00F8012D30BC7047C91818BF36
:1053C00000F8012DCB0728BF00F8012D7047000021
:1053D00010B588B0002003E004A9C0B2FDF7C3FBFC
:1053E000FDF766FA002854D06846FDF740FA002819
:1053F0004FD1009804909DF80C008DF814009DF892
:105400000D0000210AE06A460B009BB21A44127993
:1054100004AB0C00A4B223445A71491C0A009DF845
:105420000C3092B29BB29A42EDD306E0002204AB5C
:105430000C00A4B223445A71491C0A0092B2082AF3
:10544000F4DB0100C9B20129CAD1009940F2DF7230
:105450009142C1D040F21171009A8A42BCD0009AA8
:1054600012F4E162B2F5E16F08D1009A0A408A4273
:1054700004D004A9C0B2FDF776FBB1E7009911F49E
:10548000E061B1F5E06FABD004A9C0B200F003F861
:10549000A6E708B010BD70B40022002300E05B1C3A
:1054A0001A00D2B2022A26D20D68434C1E00F6B270
:1054B00005225643A25B9542F1D11D00EDB20522B3
:1054C000554304EB05029278012AE8D105001E003D
:1054D000F6B20522564304EB06021279EDB295426C
:1054E000DDD10D791E00F6B20522564304EB06020B
:1054F000D2789542D3D170BC704780B50A002F494D
:105500000978002903D11168B1F5E26F06D1002AAC
:1055100004D00100C9B21000FDF762F901BD78B5F1
:1055200085B002000020264B1B78002B04D10B68AD
:1055300040F21974A3423BD10B68009300230193FE
:1055400000238DF8083000238DF809300B798DF891
:105550000A30002309E01C00A4B20C4464796D46B3
:105560001E00B6B23544EC725B1C1C000D79A4B26F
:10557000ADB2AC42EFD3097908290BDA06E000217D
:105580006C461D00ADB22C44E1725B1C190089B25F
:105590000829F4DB1100C9B2012903D1684601F0E2
:1055A0005EFD05E0D2B2022A02D1684601F00BFE90
:1055B000C0B206B070BD00005CB30008A8000020B7
:1055C000A90000200CB430B583B00A4606A90291A8
:1055D000044600250194009502AB01A908487844CF
:1055E0001E3001F021FE019A157000284EBF0446BE
:1055F0000198041B204603B030BC5DF80CFB00BFD3
:10560000DFF9FFFF2DE9F047050000265FF00009F4
:1056100000200020002D0DD01700002F0AD0984642
:10562000B8F1000F06D00C00002C03D0D8F8000011
:10563000A04201D201205EE0D8F800100022BA4654
:105640005046FFF791FE552007F8090019F10109AE
:10565000AA2007F8090019F10109002100E0491CFE
:10566000A14239D2002200E0521C6F4B032000FB04
:1056700002F018448078002819D0032000FB02F0C3
:10568000185C15F801C06045EED1032000FB02F064
:105690001844407807F8090019F10109032000FBBC
:1056A00002F01844807807F8090019F10109032075
:1056B000424303EB02008078002804D1685C07F8BD
:1056C000090019F10109D8F8000014EB0902521A77
:1056D000921C9042C3D20226002E0BD10A2007F85A
:1056E000090019F101090D2007F8090019F1010954
:1056F000C8F800903000BDE8F087F0B40C00002539
:1057000000210027002803D0002A01D0002B01D15E
:10571000012010E0002603E0815DD1557F1C761C3E
:10572000A64206D2815D0029F9D019688F42F3D3D1
:1057300002251F602800F0BC70472DE9F0470400E7
:105740000800022500210021002600275FF0000C40
:10575000002C07D01100002904D0002B02D0020039
:10576000052A01D201205CE05FF0000E43E0380022
:10577000C0B201283DD16046C0B201282AD15FF0F5
:10578000000801E018F10108DFF89C90032000FBFD
:1057900008F048448078002813D014F80E005FF019
:1057A000030A0AFB08FACA449AF802A05045E9D154
:1057B000032000FB08F019F800008855761C5FF004
:1057C000000C032000FB08F809EB08008078002893
:1057D0000FD125E014F80E007F2802D15FF0010CF4
:1057E00007E014F80E000A2818D014F80E008855A7
:1057F000761C1EF1010E964512D23800C0B2002868
:10580000B5D114F80E005528F3D104EB0E00407802
:10581000AA28EED101271EF1010EEAE71E6000253D
:105820002800BDE8F08700009CB100082DE9F8438E
:1058300004000D0002260020002C04D0002D02D010
:105840002868002801D101201EE0296800222700D5
:105850003800FFF789FD4FF4C057DFF8308038F883
:105860000790B9F1010F0EDB72B638F8072018F572
:1058700040612000FFF724FD002028F8070062B6F1
:10588000C5F8009000263000BDE8F283AC88012006
:1058900080B589B202F0C6FB002002BDF8B5040055
:1058A00015000020002200E0521C022A07DA864878
:1058B0004FF4886606FB02F6805D0028F4D1022AC8
:1058C00023DA4FF48860804E012700FB02FC06F8C3
:1058D0000C7000FB02F73744BC602C7800FB02F729
:1058E00037443C7300FB02F43444637300FB02F35F
:1058F0003344D98189B2424306EB020010F110040F
:105900000A0029002000FFF7DBFCF1BD10B54FF4C1
:10591000086100226C4C2000FFF726FD10BD2DE928
:10592000F8430400072607270125A0684FF4E26129
:10593000401A0AD0303811D0203809D0401E0AD081
:105940007E380ED10226052747E00226022744E0D2
:105950000326032741E0042604273EE00526052709
:105960003BE03AE0002109E000223100C9B208FB27
:1059700001F14944897C0429F4D00121C0B2D2B29A
:105980001040C9B2084200D000253000C0B208FB68
:1059900000F04844807C02281ED13000C0B208FBD1
:1059A00000F04844D0F80A103000C0B208FB00F004
:1059B000484410F114033000C0B208FB00F0484422
:1059C000C289607BFDF79EFC3000C0B208FB00F886
:1059D00009EB080005218174761C38003100C0B243
:1059E000C9B288421CD33000C0B2062818DA40F28F
:1059F0004B48DFF8D8903000C0B208FB00F04844B4
:105A0000807C022801D0012000E000203100C9B2D2
:105A100008FB01F14944897C0329A5D00122A4E7B0
:105A2000FFF713FB616811F5FA61884202D2EDB20B
:105A3000012D04D100202649087000202070BDE807
:105A4000F18370B50020002407E005E005FB04F5B4
:105A500006EB0500FFF763FF641C022C32DA4FF4FB
:105A60008865194E05FB04F0305C012804D0ECD3A6
:105A70000328EBD016D3E8E705FB04F03044C289D5
:105A800005FB04F0304410F1100105FB04F0304434
:105A90008068FDF70BFC012803D1022005FB04F50B
:105AA0007055D9E70A48007804280AD1032005FB7D
:105AB00004F17054FFF7C9FA05FB04F506EB050184
:105AC0004860C9E770BD000014C70120906A01203A
:105AD0005C840120EFF30980BFF36F8F264B1A68B7
